:020000040000FA
:10000000E8110010DD000000E5000000E70000003E
:10001000E9000000EB000000ED000000000000001F
:10002000000000000000000000000000EF000000E1
:10003000F100000000000000F3000000F5000000E7
:10004000F7000000F7000000F7000000F7000000D4
:10005000F7000000F7000000F7000000F7000000C4
:10006000F7000000F7000000C10A0000F7000000E0
:10007000F7000000F7000000F7000000F7000000A4
:10008000F7000000F7000000F7000000F700000094
:10009000F700000061090000F7000000F700000011
:1000A000F7000000F7000000F7000000F700000074
:1000B000F7000000F7000000F7000000F700000064
:1000C000F7000000DFF80CD000F094FA0048004779
:1000D000752C0000E811001000BF704706488047EB
:1000E00006480047FEE7FEE7FEE7FEE7FEE7FEE71D
:1000F000FEE7FEE7FEE7FEE7C91A0000C5000000C4
:10010000F0B480EA0102D40F4200B2EB410F02D2F8
:100110000246084611464A0042D0C30DDDB2C1F383
:10012000C752AD1A202D35DAC1F3160141F4000291
:1001300004B15242C5F1200602FA06F12A411044E8
:10014000B3EBD05F23D0C4B1012DA0EBC35009DCC9
:10015000F0BC4FF0004202EAC35200F50000DBB2EF
:1001600000F06BB9400000F1807000EBC350A0F1CB
:10017000807040EAD170490009E0490841EAC07145
:10018000A0EBC35000F50000400800EBC350F0BCEA
:1001900000F04AB96142012202EB4101001BF6E77F
:1001A000F0BC704781F00041AAE780F00040A7E76B
:1001B00080EA010210B502F00043400026D04A0058
:1001C00023D04FEA106101EB1261C0F35600C2F375
:1001D000560240F4000042F40002A0FB0220A1F10C
:1001E0007F014FEA0040140401D000F1010050EA01
:1001F000124001D44000491EC2B20C0604EBD010DC
:10020000401C4008802A02D003E0002010BD20F0EE
:100210000100002900DA0020184310BD30B480EA44
:10022000010202F0004530F0004221F0004015D0FC
:10023000A0B1C0F3C753C2F3C754C2F31601C0F351
:100240001600E41A41F4000140F400027D349142AA
:1002500001D3641C00E04900002C02DA30BC00200D
:1002600070474FF400000023914201D3891A0343E1
:1002700040084FEA4101F7D151B1914202D14FF00C
:10028000004105E002D24FF0010101E06FF00101F1
:1002900003EBC450284430BC00F0C6B8C10F80EA5C
:1002A000E0700844CA079623002100F0C6B89623E0
:1002B0000022114600F0C1B80EB540F23341029160
:1002C0000021CDE900110A460B4600F0F0F803B01A
:1002D00000BD20F00040C10DC0F3160040F4000046
:1002E0007F2901DA00207047962903DCC1F19601CD
:1002F000C84070479639884070477047FFFFFFFF3E
:1003000000F0004220F00040C10DC0F3160040F4A0
:1003100000007F2901DA00207047962903DCC1F133
:100320009601C84001E096398840002AF4D0404246
:100330007047C1F30A5210B5C1F3130140F2FF3305
:1003400041F480119A4201DA002010BD40F233439B
:100350009A42A2F2334203DC524200F055F810BD3B
:10036000904010BD00F0004230F000400AD0C10DB6
:1003700001F56071C0F3160042EA0151C20840075E
:1003800011437047002001467047000030B5002936
:1003900004DB4FF00044404264EB0101002B04DB1E
:1003A0004FF00044524264EB03038B4208BF824289
:1003B00030BD000030B5002904DB4FF0004440425E
:1003C00064EB0101002B04DB4FF00044524264EB6C
:1003D0000303994208BF904230BD000030B50B4680
:1003E000014600202022012409E021FA02F59D4265
:1003F00005D303FA02F5491B04FA02F52844151E39
:10040000A2F10102F1DC30BD202A04DB203A21FAFE
:1004100002F00021704721FA02F3D040C2F120021D
:1004200091400843194670470029A8BF7047401CF7
:10043000490008BF20F00100704710B4B0FA80FCFA
:1004400000FA0CF050EA010404BF10BC704749B137
:10045000CCF1200421FA04F411FA0CF118BF0121A7
:1004600021430843A3EB0C01CB1D0106000A002B1E
:10047000BEBF002010BC704700EBC35010440029E1
:10048000A4BF10BC7047401C490008BF20F0010009
:1004900010BC704710B5002B08DA401C41F1000178
:1004A00092185B411A4301D120F0010010BD2DE9E3
:1004B000F04D92469B4611B1B1FA81F202E0B0FADA
:1004C00080F22032904600F0A7F804460F4640EA3A
:1004D0000A0041EA0B0153465A46084303D120461D
:1004E0003946BDE8F08D114653EA010015D0C8F138
:1004F00040025046FFF788FF05460E4650465946D3
:10050000424600F089F8084301D0012000E00020B5
:10051000054346EAE0762C4337430A984FEA4453B2
:10052000A0EB08004FEAD4240A304FF0000244EA5E
:1005300047544FEAD72502D500200146D1E70105EF
:1005400010196941DDE9084500196941BDE8F04D20
:10055000A0E72DE9F04D00231A461B1A8A4103DB60
:1005600000200146BDE8F08DC1F30A52C1F313012A
:1005700041F480154FF0000BD10702D100186D41F6
:10058000521E0027044640F2FF11384601EB620A72
:100590003E468046024600204FF48011FFF734FFAC
:1005A000C2197141BB1846EB0100B4EB030C75EBAB
:1005B000000C04D3E41A65EB000517460E46241917
:1005C00008F101006D4180463428E3DDF91946EB5E
:1005D0000600091BA84103D24FF0FF32134601E089
:1005E000002213461BEB070046EB0A51BDE8F04D15
:1005F000FFF750BF064C074D06E0E06840F00103EE
:1006000094E8070098471034AC42F6D3FFF75EFD3C
:10061000C0500000E0500000202A04DB203A00FA1D
:1006200002F1002070479140C2F1200320FA03F349
:10063000194390407047000070B50646002500241D
:1006400080201949C8614020C8618020C8610A2003
:1006500001F0B8FF304600F069F80D2001F0B2FF5C
:1006600080201149C861012001F0ACFF00BF13E0F8
:100670004FF6FF7000EA440480200B49C861012056
:1006800001F0A0FF8020084988610848006808B18F
:10069000601C84B2681CC5B2102DE9DB2411402017
:1006A00001498861204670BD00C00920A00238239E
:1006B0002DE9F04188B080460027002406E040463E
:1006C000FFF7BAFF2DF81400601C84B20F2CF6DB84
:1006D000002416E0601C85B20FE03DF814003DF8E0
:1006E0001510884207DD3DF814603DF815002DF81F
:1006F00014002DF81560681C85B20F2DEDDB601C11
:1007000084B20E2CE6DB0027052405E03DF814003A
:10071000384487B2601C84B20A2CF7DB052097FBB3
:10072000F0F086B2304608B0BDE8F08110B503465F
:10073000002400BF18E013F0800F04D04FF40070C5
:100740000B49886103E04FF400700949C8615806FD
:10075000030E80200649C861012001F033FF80208C
:1007600003498861601CC4B2082CE4DB10BD0000A2
:1007700000C009202DE9F0411F49881E01F0B1F8A1
:10078000B8B31D49891FB1F91400FFF787FD06466C
:100790001949891F8888FFF78AFD07461648801F78
:1007A000C1683846FFF704FD05463146FFF7A8FC4F
:1007B0000446FFF78EFD1049891F0880B1F9160025
:1007C000FFF76CFD06460C49891FC888FFF76FFDCF
:1007D00007460948801F01693846FFF7E9FC0546CE
:1007E0003146FFF78DFC0446FFF773FD0249891F70
:1007F0004880BDE8F0810000B200001010B5002173
:100800000BE0002205E0002300E05B1C642BFCD31E
:10081000521CB2F57A7FF6D3491C8142F1D310BD48
:1008200070B504460D462946204600F007FC2946CF
:10083000601C00F003FC681C81B2204600F0FEFB47
:10084000681C81B2601C00F0F9FB70BD2DE9F04717
:1008500006460F469046002445460320A0EB480973
:1008600048E03A1B91B2721B90B200F0E7FB3A1BD2
:1008700091B2721990B200F0E1FB7A1991B2321B79
:1008800090B200F0DBFB3A1B91B2721B90B200F009
:10089000D5FB7A1B91B2321B90B200F0CFFB3A1914
:1008A00091B2721990B200F0C9FB7A1B91B2321961
:1008B00090B200F0C3FB7A1991B2321990B200F0F5
:1008C000BDFB3A1991B2721B90B200F0B7FB641CE9
:1008D000B9F1000F03DAA000801D814404E0601B21
:1008E00080000A3081446D1E7A1991B2321990B29B
:1008F00000F0A4FBAC42B4DDBDE8F08770B504465F
:100900000D46A4F10C0188B22B4604F10D022946D4
:1009100000F03CFB05F10D0083B2193881B222468C
:10092000204600F033FB681C81B2601C00F086FB9F
:100930006A1C91B2621E90B200F080FB681E81B208
:10094000601C00F07BFB6A1E91B2621E90B200F048
:1009500075FB062229462046FFF778FF70BD000090
:1009600000B5012001F02EFE0448006810B90120F6
:100970000349087208200349086000BDB40A3823FF
:10098000AC00001040C10F4010B54FF08060084926
:1009900008610820074908604FF000000649C1F8C7
:1009A0004C014FF0150000F066FF012010BD000063
:1009B00000C0024048C10F4000C00F40FEB50820F3
:1009C00001AB202201210090A02000F0C1F90546D2
:1009D0009DF80400FF286CD1002404E0002001A948
:1009E0000855601CC4B2082CF8DB082001AB0022BB
:1009F00001210090A02000F0ABF99DF8070000064F
:100A00009DF8061040EA01409DF8051040EA0120DB
:100A10009DF8041040EA01052846FFF73FFC064612
:100A20002549FFF7FBFB2549C860082001AB0246BA
:100A300001210090A02000F08BF99DF8070000062E
:100A40009DF8061040EA01409DF8051040EA01209B
:100A50009DF8041040EA01052846FFF71FFC0646F2
:100A60001549FFF7DBFB15490861082001AB10228F
:100A700001210090A02000F06BF99DF804009DF882
:100A8000051040EA012528B20C498882082001ABF4
:100A9000182201210090A02000F05AF99DF80400CE
:100AA0009DF8051040EA012528B20449C8820120BA
:100AB000FEBD0020FCE7000020BCBE4CAC000010D6
:100AC00010B58048406800F0F80414F0070F70D1AA
:100AD000E0100C286DD2DFE800F0F1061920B721F4
:100AE000B8B9A8BAC1DE78480078012806D177489D
:100AF000007800F0FE007349886003E073480078D6
:100B00007049886028206F498861D8E06F48007874
:100B10006C49886028208861D1E000BF6A4800786D
:100B200000BB6B480068A8B16A4800680078654956
:100B3000886068480068401C664908602820614950
:100B4000886163480068401E614908600120FFF722
:100B500055FE07E010205B490860282088610120CD
:100B60005D4908705848007801282FD15B4800780B
:100B700002280DD15A480068C0F307205149886007
:100B80002820886155480078401E5449087096E036
:100B90005248007801280DD151480068C0B2494937
:100BA0008860282088614D480078401E4B490870B5
:100BB00085E083E04948007840B9082041498861D0
:100BC0002020086000204049087078E03E48007806
:100BD000022829D141480078002825DD3F480078C7
:100BE00002280DD13E480068C0F3072035498860CF
:100BF0002820886139480078401E384908705EE036
:100C00003648007801280FD135480068C0B22D4918
:100C100088602820886131480078401E2F4908707C
:100C20000020294908704AE049E029480068012865
:100C300003D804202349886102E004202149086088
:100C40002820204988613AE000BF00BF00BF28206B
:100C50001C498861FF202049087030E019488068ED
:100C60001C49096808701B480068401C1949086045
:100C700017480068401E16490860084600680128A9
:100C800003D12C200F49886104E004200D4908603D
:100C90002820886113E00B4880680E4909680870B5
:100CA0000C480068401C0B4908601020054908608A
:100CB0002820886101200849087000E000BF00BFBB
:100CC00010BD000000C00140210000100C00001009
:100CD0001C0000101800001020000010140000106C
:100CE0001000001010B501461548006840F40020BF
:100CF000144AC2F8C4001448406820F07070124AC8
:100D000050601046406840F0A07050604FF0800086
:100D10000E4A50611061022901D1A020D0600A2042
:100D20000122824043094FF0E02404EB8303C3F81F
:100D3000002100BF4020054A1060012010BD0000C6
:100D4000C4C00F4000C00F4000C0024000C00140BE
:100D50002DE9F04105460E4614461F46DDF8188081
:100D6000B8F1000F45D0012E07D1681C2349087047
:100D700023480460012023490870022E07D1681C13
:100D80001E4908701E48046002201E490870032E88
:100D90000CD10E2000EAD4102844401C17490870DA
:100DA000E0B217490860012016490870164807602C
:100DB0001648C0F800800120154908700020154928
:100DC00008702C20144988616020086000BF114819
:100DD00000780028FBD00F48007828B11420FFF7D6
:100DE0000DFD0120BDE8F0811420FFF707FD002074
:100DF000F8E71420FFF702FD0020F3E70C000010D5
:100E00001000001014000010180000101C0000104A
:100E1000210000102000001000C001402DE9F04129
:100E200005460E4614461F46DDF81880B8F1000F3F
:100E300041D0012E06D122480570224804600120CD
:100E400021490870022E06D11D4805701D48046016
:100E500002201D490870032E0AD10E2000EAD4108A
:100E60002844174908701748046001201649087083
:100E7000164807601648C0F800800220154908701F
:100E80000020154908702C201449886160200860F2
:100E900000BF114800780028FBD00F48007828B127
:100EA0001420FFF7ABFC0120BDE8F0811420FFF710
:100EB000A5FC0020F8E71420FFF7A0FC0020F3E7D2
:100EC0000C0000101000001014000010180000109A
:100ED0001C000010210000102000001000C0014084
:100EE00000B50648006810B9022001F04EFB034827
:100EF000006808B9012000BD0020FCE7A80A3823DB
:100F000070B5054600F09FFC0021084600F07CFB10
:100F10004FF480000949C861222002F0B9F802F0BC
:100F2000F9F8002403E0284602F0E2F8641CB4F566
:100F3000963FF8D302F0F6F870BD000000C009201B
:100F40002DE9F04780460C4615461E46DDF82090F8
:100F50004946304600F058FB4FF480000A49C8610A
:100F6000222002F095F802F0D5F8002703E0404671
:100F700002F0BEF87F1C04FB05F0B842F7D802F07F
:100F8000D1F8BDE8F087000000C009202DE9FF4F2F
:100F900085B081468A460020049003900798A0EB14
:100FA00009050898A0EB0A06CDF80890CDF804A032
:100FB000002D01DD012705E00DB9002702E04FF00B
:100FC000FF376D42002E02DD4FF0010806E016B932
:100FD0004FF0000802E04FF0FF387642B54201DDE5
:100FE0002C4600E034464FF0000B21E0019A91B20C
:100FF000029A90B200F022F80498284404900398D2
:10100000304403900498A04205DD0498001B04902E
:101010000298384402900398A04205DD0398001B13
:1010200003900198404401900BF101001FFA80FBEE
:10103000601C8345DADD09B0BDE8F08F70B5044669
:101040000D4600F000FCE0B2294600F0DDFA4FF456
:1010500080000749C861222002F01AF802F05AF80D
:101060000448008802F044F802F05CF870BD00000B
:1010700000C009200000001070B504460E46154659
:1010800000F0E1FBE0B2314600F0BEFA4FF4800020
:101090000649C861222001F0FBFF02F03BF8284618
:1010A00002F026F802F03EF870BD000000C00920F2
:1010B0002DE9F04104460D4616461F46DDF818801E
:1010C0000E48A0F800802B46324629462046FFF7FE
:1010D0005DFF3B46224629462046FFF757FF3B4629
:1010E000324639462046FFF751FF3B4632462946F5
:1010F0003046FFF74BFFBDE8F08100000000001014
:1011000010B5FE48006C40F0FF00FC49086408463A
:10111000006840F07E7008604FF07E7088610520A6
:1011200001F02CFA002001F001FEF549088048F694
:101130009910088008460088A0F51341253905D08C
:10114000EF480088A0F5134128397DD11021E72010
:1011500001F0F0FF0121002001F0ECFF4FF480715D
:10116000012001F0E7FF4FF4E061022001F0E2FF0F
:1011700041F23001032001F0DDFF0021042001F0E5
:10118000D9FF40F20721082001F0D4FF00210920F7
:1011900001F0D0FF00210A2001F0CCFF01210C203A
:1011A00001F0C8FF00210D2001F0C4FF00210F2035
:1011B00001F0C0FF0021102001F0BCFF0721112029
:1011C00001F0B8FF0021122001F0B4FF002113202C
:1011D00001F0B0FF052001F0D1F941F2905110204B
:1011E00001F0A8FF40F22721112001F0A3FF052004
:1011F00001F0C4F99C21122001F09CFF052001F0B0
:10120000BDF94FF4C851132001F094FF2321292088
:1012100001F090FF0E212B2001F08CFF052001F042
:10122000ADF90021202001F085FF40F23F1121207F
:1012300001F080FF052001F0A1F90721302001F025
:1012400079FF40F2077100E087E0312001F072FF82
:101250000621322001F06EFF40F20471352001F0CA
:1012600069FF41F60471362001F064FF0421372044
:1012700001F060FF0021382001F05CFF40F20671B0
:10128000392001F057FF40F201713C2001F052FF7C
:101290000F213D2001F04EFF052001F06FF90021E4
:1012A000502001F047FFEF21512001F043FF0021C2
:1012B000522001F03FFF40F23F11532001F03AFF6E
:1012C0004FF42741602001F035FF0121612001F03A
:1012D00031FF00216A2001F02DFF0021802001F064
:1012E00029FF0021812001F025FF0021822001F04B
:1012F00021FF0021832001F01DFF0021842001F047
:1013000019FF0021852001F015FF1021902001F028
:1013100011FF0021922001F00DFF0321932001F025
:1013200009FF4FF48871952001F004FF00219720F8
:1013300001F000FF0021982001F0FCFE40F2331183
:10134000072001F0F7FE0021202001F0F3FE40F21B
:101350003F11212001F0EEFE55E169480088A0F51B
:101360001341203904D066480088B0F5134F7DD171
:101370000021084601F0DEFE4FF48071012001F0EB
:10138000D9FE4FF4E061022001F0D4FE41F23001B9
:10139000032001F0CFFE0021042001F0CBFE40F23B
:1013A0000221082001F0C6FE0021092001F0C2FE42
:1013B00000210A2001F0BEFE01210C2001F0BAFE3E
:1013C00000210D2001F0B6FE00210F2001F0B2FE39
:1013D000052001F0D3F840F20111072001F0AAFE28
:1013E000052001F0CBF84FF48651102001F0A2FE49
:1013F0000721112001F09EFE4FF48871122001F0A8
:1014000099FE4FF43061132001F094FE0021292051
:1014100001F090FE44F210012B2001F08BFE002120
:10142000502001F087FEEF21512001F083FE0021C2
:10143000522001F07FFE40F23F11532001F07AFE6E
:101440004FF41C51602001F075FE0121612001F074
:1014500071FE00216A2001F06DFE0021802001F064
:1014600069FE0021812001F065FE00E02EE00021F0
:10147000822001F05FFE0021832001F05BFE00214D
:10148000842001F057FE0021852001F053FE102139
:10149000902001F04FFE0021922001F04BFE01212F
:1014A000932001F047FE4FF48871952001F042FE31
:1014B0000021972001F03EFE0021982001F03AFE25
:1014C00040F27311072001F035FE9CE00C480088C3
:1014D000A0F509419939F8D10121002001F02AFE37
:1014E00043F63F31012001F025FE4FF4C061022098
:1014F00001F020FE07210C2004E0000000C00920BC
:101500000800001001F016FE06210D2001F012FE69
:101510004FF448510E2001F00DFEBB211E2001F0BA
:1015200009FE46F66421032001F004FE00210F208D
:1015300001F000FE4FF46F41442001F0FBFD00215B
:10154000452001F0F7FD40F23F11462001F0F2FD89
:101550000021302001F0EEFD40F20671312001F053
:10156000E9FD40F20621322001F0E4FD4FF4407124
:10157000332001F0DFFD0221342001F0DBFD0021EA
:10158000352001F0D7FD40F20771362001F0D2FD81
:101590004FF40071372001F0CDFD40F608113A20DC
:1015A00001F0C8FD40F60D713B2001F0C3FD06219E
:1015B000282001F0BFFD41F2EB212F2001F0BAFD00
:1015C0004FF4E041262001F0B5FD4BF2E30120206D
:1015D00001F0B0FD4421272001F0ACFD47F6456144
:1015E0002E2001F0A7FD0021102001F0A3FD08200E
:1015F00000F0C4FF46F67001112001F09BFD33217D
:10160000072001F097FD10BD70B504460D460F4848
:101610000088A0F50941993905D00C480088A0F54B
:101620001941193908D121464E2001F083FD294680
:101630004F2001F07FFD07E02146202001F07AFDD8
:101640002946212001F076FD70BD00000800001041
:101650002DE9F05F0646884691461D46E82E02DCDD
:10166000B8F5987F01DDBDE8F09F3146502001F0CC
:1016700061FDAB4605EBDB704010401E304481B28B
:10168000512001F057FD4146522001F053FD08EB77
:101690000500401E81B2532001F04CFD414630460A
:1016A000FFF7B2FF00F0E2F8A9F1200000F0FF0917
:1016B0000A98002834D100242FE00C2D07D109EB23
:1016C0004900354901EB800010F804A004E03348DC
:1016D00000EB091010F804A0002717E01AF0010F22
:1016E00008D008EB040291B2F0192D4A1288FFF7D6
:1016F000C3FC07E008EB040291B2F019294A1288F2
:10170000FFF7BAFC4FEA6A0A781CC7B205EBD5713D
:10171000B7EB610FE2DB601CC4B2AC42CDDB28E06A
:10172000002424E00C2D07D109EB49001A4901EBF4
:10173000800010F804A004E0184800EB091010F82D
:1017400004A000270CE01AF0010F05D008EB0402FA
:1017500091B2F019FFF772FC4FEA6A0A781CC7B21F
:1017600005EBD571B7EB610FEDDB601CC4B2AC4289
:10177000D8DB0021502001F0DDFCEF21512001F0E9
:10178000D9FC0021522001F0D5FC40F23F1153203A
:1017900001F0D0FC00BF66E75C460000D04A0000C4
:1017A0000000001002000010F8B505460E46144671
:1017B0001F46114807801BE0E82D03DD002506F1D8
:1017C000100086B2B6F5987F06DD00200546064675
:1017D0004FF6FF70FFF794FB002000902278102353
:1017E00031462846FFF734FF05F10800C5B2641CF6
:1017F00020780028E0D1F8BD00000010F8B50546BB
:101800000E4614461BE0E82D03DD002506F110000E
:1018100086B2B6F5987F06DD0020054606464FF6EF
:10182000FF70FFF76DFB00200090227810233146F7
:101830002846FFF70DFF05F10800C5B2641C2078AB
:101840000028E0D1F8BD10B50021502001F072FC55
:10185000EF21512001F06EFC0021522001F06AFCC2
:1018600040F23F11532001F065FC10BD10B522205D
:1018700001F00EFC10BD00F01F0201219140420951
:101880004FF0E02303EB8202C2F800117047000022
:1018900010B504461CB11520FFF7EDFF08E0152038
:1018A00001218140034A430942F8231000BF00BFD1
:1018B00010BD000080E100E0F0B504460D46D020E8
:1018C000FEF7F6FE06469020FEF7F2FE0746642E6F
:1018D00001DB642F01DA0020F0BD26802F8001207B
:1018E000FAE77FB504460D4602A903A8FFF7E4FF17
:1018F000064616B9002004B070BD694601A8FFF77E
:10190000DBFF06460EB90020F5E7BDF80400BDF880
:101910000C10884206DCBDF80C10BDF80400323013
:1019200081420CDBBDF80C00BDF80410884236DCA7
:10193000BDF80410BDF80C00323081422FDABDF83A
:101940000000BDF80810884206DCBDF80810BDF89C
:101950000000323081420CDBBDF80800BDF80010F9
:1019600088421CDCBDF80010BDF80800323081420E
:1019700015DABDF80C10BDF80420881800EBD07102
:10198000C1F34F012180BDF80810BDF80020881870
:1019900000EBD071C1F34F0129800120ABE700209B
:1019A000A9E7000010B500240020FFF771FF002018
:1019B0000C490872891D881EFFF793FF04E0601C24
:1019C000C4B20A2000F0F3FD0748006808B9FA2CF9
:1019D000F5DD0120FFF75CFFFA2C01DB002010BDD4
:1019E0000120FCE7AC000010B40A38233EB53449AE
:1019F000C8683449FEF7DCFB0546FEF781FC044667
:101A0000E0B28DF80400200A8DF80500200C8DF856
:101A10000600200E8DF80700082001AB00220121EE
:101A20000090A020FFF7FAF9254908692549FEF73B
:101A3000BFFB0546FEF764FC0446E0B28DF80400E7
:101A4000200A8DF80500200C8DF80600200E8DF878
:101A50000700082001AB024601210090A020FFF7FB
:101A6000DDF91748B0F91440E0B28DF80400200AFF
:101A70008DF80500082001AB102201210090A02064
:101A8000FFF7CCF90E48B0F91640E0B28DF804002B
:101A9000200A8DF80500082001AB182201210090D2
:101AA000A020FFF7BBF9FF208DF80400012001AB57
:101AB000202201460090A020FFF7B0F93EBD0000B3
:101AC000AC00001020BCBE4C2020464908604648AF
:101AD000D0F8A00110F0200F05D000BF41480068E9
:101AE00010F0400FFAD00320404908604FF000008A
:101AF0003D49C1F8A8013E4908604FF001003D4949
:101B000008603D483D4908604FF0AA003C49086024
:101B10004FF0550008604FF001003A4908604FF05F
:101B2000AA00374908604FF055002F49C1F88C00D2
:101B300000BF3548006810F0806FFAD003203149AB
:101B400008604FF0AA002849C1F88C004FF05500FA
:101B50002B49086000BF2C48006810F0407FFAD085
:101B600023202A4908604FF0AA001F49C1F8AC00A1
:101B70004FF05500264908604FF0010025490860E4
:101B80004FF0AA00224908604FF055001649C1F8ED
:101B9000AC0000BF2048006810F4806FFAD003202A
:101BA0001C4908604FF0AA000F49C1F8AC004FF083
:101BB00055001749086000BF1748006810F4407FBF
:101BC000FAD01648164908604FF000000649C1F8DF
:101BD000C80143F23A0008604FF000001149086064
:101BE00070470000A0C10F4000C00F4004C10F406B
:101BF000ACC10F400CC10F406300050084C00F4012
:101C00008CC00F4080C00F4088C00F40A4C00F4060
:101C1000ACC00F40A0C00F40A8C00F40DE87280412
:101C2000C4C00F4008ED00E02DE9F04F87B000265A
:101C300000BF4FF47840FE490880FE4908804FF607
:101C4000FF70FFF75DF94FF47840F94908804FF6CF
:101C5000FF70FFF755F914210846FEF74FFE0020EC
:101C6000F5490872C86009E2F348007A01287DD17D
:101C7000FFF798FE58B1F048808803A921F82600A4
:101C8000ED48C08801EB86014880701CC6B2012E69
:101C900006D0022E0DD0032E15D0042E08D11CE044
:101CA0004FF6FF70FFF72CF91421DC20FEF726FE1B
:101CB000E2E14FF6FF70FFF723F94FF4967114201D
:101CC000FEF71CFED8E14FF6FF70FFF719F94FF44D
:101CD0009671DC20FEF712FECEE1BDF80C10BDF8C7
:101CE0001020881A01D4014600E041420C46BDF89C
:101CF0000E20BDF81210501A01D4014600E04142F6
:101D00000D4664436D436019FEF7D6FACDE9000134
:101D100001F029F80746FEF70CFB1FFA80F9BDF821
:101D20001410BDF81820881A01D4014600E0414281
:101D30000C46BDF81620BDF81A10501A01D4014601
:101D400000E041420D4664436D436019FEF7B4FA6A
:101D5000074601F008F8CDE90001FEF7EAFA1FFA9C
:101D600080FA5046FEF7A3FA074600E085E14846B0
:101D7000FEF79DFA80463946FEF750FA0290029827
:101D8000FEF7F0FA07464FF06632AC4BFEF7FEFA6C
:101D90000ED30298FEF7E6FA0746A94AA94BFEF7CA
:101DA00009FB05D3B9F1000F02D0BAF1000F09D138
:101DB00000264FF6FF70FFF7A3F814210846FEF740
:101DC0009DFD5BE1BDF80C10BDF81420881A01D40C
:101DD000014600E041420C46BDF80E20BDF8161049
:101DE000501A01D4014600E041420D4664436D4360
:101DF0006019FEF761FACDE9000100F0B4FF074673
:101E0000FEF797FA1FFA80F9BDF81010BDF81820F8
:101E1000881A01D4014600E041420C46BDF8122068
:101E2000BDF81A10501A01D4014600E041420D4697
:101E300064436D436019FEF73FFACDE9000100F0FD
:101E400092FF0746FEF775FA1FFA80FA5046FEF732
:101E50002EFA07464846FEF72AFA80463946FEF72C
:101E6000DDF902900298FEF77DFA07464FF06632E0
:101E7000724BFEF78BFA08D30298FEF773FA074607
:101E80006F4A704BFEF796FA09D200264FF6FF70A4
:101E9000FFF736F814210846FEF730FDEEE0BDF8F6
:101EA0001010BDF81420881A01D4014600E0414208
:101EB0000C46BDF81220BDF81610501A01D4014688
:101EC00000E041420D4664436D436019FEF7F4F9AA
:101ED000074600F048FFCDE90001FEF72AFA1FFA95
:101EE00080F9BDF80C10BDF81820881A01D40146FD
:101EF00000E041420C46BDF80E20BDF81A10501A01
:101F000001D4014600E041420D4664436D4360192F
:101F1000FEF7D2F9074600F026FFCDE90001FEF7F3
:101F200008FA1FFA80FA5046FEF7C1F907464846FC
:101F3000FEF7BDF980463946FEF770F90290029827
:101F4000FEF710FA07464FF066323C4BFEF71EFADA
:101F500008D30298FEF706FA0746394A394BFEF7CE
:101F600029FA09D200264FF6FF70FEF7C9FF1421A7
:101F70000846FEF7C3FC81E0BDF81010BDF80C2048
:101F8000881AFEF78BF9074639462F48FEF746F9BF
:101F90002949C860BDF81010BDF80C208818FEF75C
:101FA0007DF901902448C1680198FEF701F9834644
:101FB0002649FEF7FAF880464FF08041FEF72EF9E9
:101FC0000746FEF79DF900B21B498882BDF816103E
:101FD000BDF80E20881AFEF761F9074639461C48FD
:101FE000FEF71CF914490861BDF81610BDF80E2063
:101FF0008818FEF753F901900F4801690198FEF720
:10200000D7F883461349FEF7D0F880464FF0804159
:10201000FEF704F90746FEF773F900B20649C882D5
:102020001F20034908804FF6FF70FEF769FF13E099
:102030000000001002000010AC0000106666EE3FC9
:10204000CDCCCCCCCCCCF03F00004843000070435A
:1020500000008C430000A04309A26E212320FFF75B
:10206000CDFB4FF47A7000F0A2FA4FF6FF70FEF746
:1020700047FF07B0BDE8F08F00BF00BFF4E50000E8
:10208000546F7563682053637265656E2041646A9E
:10209000757374204F4B210010B51448006840F44C
:1020A0003070124908600846006C08641049881EA8
:1020B000FFF702FCFEF768FC4FF6FF70FEF720FF0B
:1020C0000120FEF70FFE08B900BFFEE7FEF776FC21
:1020D00000B110BD4FF6FF70FEF712FFFFF7A4FD31
:1020E000FFF784FCFEF76AFC00BFF2E700C009209E
:1020F000B20000102DE9F0430646032500274FF0FB
:1021000000082548006840F0100023490860084690
:10211000006840F04000086020480068C0F3811962
:10212000B9F1000F09D0B9F1010F0AD0B9F1020FCE
:102130000AD0B9F1030F0BD000BF1948006884081A
:102140000AE01748046807E015480068440803E0FF
:1021500013480068C40800BF00BF00201149087080
:1021600045F0800040EA070040EA08000E49087385
:1021700045EA070040EA080008734FF00300486092
:10218000324621464FF0000000F08CFE0720064941
:102190000872BDE8F083000000C00240A8C10F40F3
:1021A000A400001028C0004000C00040014600BF4D
:1021B0000448007D10F0200FFAD0C8B2014A107018
:1021C0007047000000C000402DE9F043064603259B
:1021D00000274FF000082948006840F48010274984
:1021E00008600846006840F48000086024480068E1
:1021F000C0F30149B9F1000F09D0B9F1010F0AD0BC
:10220000B9F1020F0AD0B9F1030F0BD000BF1D487E
:10221000006884080AE01B48046807E01948006861
:10222000440803E017480068C40800BF00BF164810
:10223000006840F080701549C1F8C4004FF00000FC
:102240001349087045F0800040EA070040EA0800A2
:102250001049087345EA070040EA080008734FF088
:1022600003004860324621464FF0020000F092FE23
:10227000072008490872BDE8F083000000C0024052
:10228000A8C10F40A4000010C4C00F4000C00F4000
:1022900028800940008009400FB4054B10B503A900
:1022A000044A029800F01CF810BC5DF814FB000012
:1022B000D12500009800001002E008C8121F08C1D4
:1022C000002AFAD17047002001E001C1121F002A44
:1022D000FBD170470149086070470000A80000105A
:1022E0002DE9FF4F8BB09A460F4605460026C9E000
:1022F000252837D100246D1C6649A14601222B7880
:10230000203B02FA03F0084202D004436D1CF6E7BA
:1023100028782E2817D115F8010F44F004042A2834
:102320000ED06FF02F022878A0F1300109290AD8C9
:1023300009EB890102EB410100EB01096D1CF2E799
:1023400057F8049B6D1C287869283FD006DC0028CC
:1023500071D063280CD0642804D137E0732811D0E1
:1023600075284ED052460D99904706F1010688E037
:1023700017F8040B8DF8000000208DF80100E846E6
:10238000012003E057F8048B4FF0FF3061074FF056
:10239000000401D40AE0641C4C450DDA8442FADBE7
:1023A00018F804100029F6D106E0641C8442FCDB16
:1023B00018F804100029F8D1264404E018F8010B9D
:1023C00052460D999047641EF8D25AE001CF4FF063
:1023D0000A0B002804DAC0F100004FF02D0102E0E2
:1023E000210504D52B218DF82410012103E0E107FC
:1023F00005D02021F7E70DF1200808910CE000211D
:10240000F9E701CF4FF00A0BF9E75946FDF7E6FF70
:1024100001F1300208F8012D0028F6D1ADEB0800DB
:1024200000F1200B600701D44FF00109D94503DD0D
:10243000A9EB0B0001E029E000208146002406E022
:1024400009A85246005D0D999047761C641C0898B7
:102450008442F5DB04E0302052460D999047761C0B
:10246000B9F10001A9F10109F5DC05E018F8010B4B
:1024700052460D999047761CBBF10001ABF1010B60
:10248000F4DC6D1C287800287FF432AF0FB03046A2
:10249000BDE8F08F0928010008B5354800880028FC
:1024A0000EDD3348008819280ADA3148408814289C
:1024B00006DD2F4840882D2802DA1F202D4908808C
:1024C0002B4800881B280FDD2948008834280BDAA8
:1024D00027484088142807DD254840882D2803DA3E
:1024E0004FF47840234908802148008836280EDDC3
:1024F0001F4800884F280ADA1D484088142806DD46
:102500001B4840882D2802DA00201A490880184804
:10251000008851280FDD164800886A280BDA144815
:102520004088142807DD124840882D2803DA4FF42C
:10253000FC60104908800E480088B42817DD0C485C
:102540000088F02813DA0A48408814280FDD08486C
:1025500040882D280BDA65200123D822EC21009039
:102560004FF6FF70FEF7ECFC01200349087008BD30
:10257000AC0000100000001090000010800400BFAC
:102580000100A0F10100FBD1704710B500210BE064
:10259000002205E0002300E05B1C642BFCD3521CEE
:1025A000B2F57A7FF6D3491C8142F1D310BD00B554
:1025B000034602E0F52000F005F81800A3F101033E
:1025C000F8D100BD00BF0100A0F10100FBD17047B0
:1025D00070B504460D46204600F0BEFB70BD0000FD
:1025E0002DE9F74F8AB0002700254FF0020A0C981A
:1025F000A0F1020B59460A9800F053FB0690594689
:102600000A9800F03EFB059059460B9800F049FBF4
:10261000804659460B9800F034FB0490DDE9050133
:10262000401A09900498A0EB0804099800EBD071B7
:102630004A10069911440891204604EBD07108EB2A
:102640006101079156460EE03146089A0A9800F05B
:102650000DFA00B17F1C3146079A0B9800F006FA7C
:1026600000B16D1C761C5E45EEDB2A463946C4A0DF
:10267000FFF712FE012F21D1012D1FD1564609E08F
:102680003146079A0B9800F0F1F910B10A9850F80A
:102690002690761C5E45F3DB4946BFA0FFF7FCFDA4
:1026A000BEA0DDE90721FFF7F7FD0898814503DDAE
:1026B0006A200DB0BDE8F08F4C20FAE7012F13D14E
:1026C000022D11D104EB8400062190FBF1F040446F
:1026D0000390594650460B9B039A00F063F9054658
:1026E000012D6FD17220E4E7012F14D1032D12D1F7
:1026F0006000072190FBF1F040440390594650469A
:102700000B9B039A00F04EF90546012D01DD6E206A
:10271000CFE76820CDE7012F03D1042D01D1772029
:10272000C7E7012F03D1052D01D16D20C1E7022F8D
:102730006DD1012D6BD1002504EB4400C11700EBD6
:10274000917108EBA1010391594650460B9B039AE6
:1027500000F028F90546012D22DD2046E11704EBA3
:10276000917108EBA1010391594650460B9B039AC6
:1027700000F018F90546564609E03146039A0B98D1
:1027800000F074F910B10A9850F82690761C5E4556
:10279000F3DB0898814501DD64208AE7622088E741
:1027A0002046E11704EB917108EBA1010391594612
:1027B00050460B9B039A00F0F5F80546022D02DA0D
:1027C000632076E7CCE004EB4400C11700EB917185
:1027D00008EBA1010391594650460B9B039A00F068
:1027E000E1F80546564609E03146039A0B9800F099
:1027F0003DF910B10A9850F82690761C5E45F3DB3F
:102800000898814501DA702053E7712051E7022FC3
:102810003BD1022D39D1002504EB4400C11700EB58
:10282000917108EBA1010191594650460B9B019A09
:1028300000F0B8F80546022D25DA04EB4400C11774
:1028400000EB917108EBA1010191594650460B9B99
:10285000019A00F0A7F8054656460AE03146019A6B
:102860000B9800F003F918B10A9850F82600009070
:10287000761C5E45F2DB08990098884201DA7020E8
:1028800017E7712015E76F2013E7022F01D1032D01
:1028900073D0022F03D1042D01D1642009E7032F47
:1028A00038D1012D36D100252046E11704EB917176
:1028B00008EBA1010391594650460B9B039A00F087
:1028C00071F80546012D01DD6720F2E604EB4400B6
:1028D000C11700EB917108EBA101039159465046D5
:1028E0000B9B039A00F05EF80546564609E0314618
:1028F000039A0B9800F0BAF810B10A9850F8269095
:10290000761C5E45F3DB0898814501DA7A20D0E633
:102910007320CEE6032F24D1022D22D1002704EB11
:102920004400C11700EB91718A100699114402917D
:10293000564613E03146029A0A9800F097F810B113
:102940000B9850F82690079800EBD07100EB6101CE
:10295000494501DA6520ACE67920AAE65E45E9DB67
:102960000BE0032F03D1032D01D16B20A1E6042F2F
:1029700003D1022D01D167209BE6FF2099E60000DC
:102980000A78436F756E743A25642C79436F756EBF
:10299000743A2564000000000A2564000A25642CAE
:1029A000256400002DE9F04305460E4691461F467A
:1029B0004FF000082C4608E04A462146384600F011
:1029C00055F808B108F10108641CB442F4DB404634
:1029D000BDE8F08321480068C8283DDA1F48006838
:1029E00038B31E480068401E1D4951F820001D499B
:1029F0000988884230D019480068401E1A4951F8A9
:102A0000200018494988884226D016480088144971
:102A1000124A126841F822001248408812490F4AAF
:102A2000126841F822000D480068401C0B490860FC
:102A300012E00C4800880A49084A126841F822004E
:102A4000084840880849054A126841F822000348AE
:102A50000068401C01490860704700003000001009
:102A6000E8000010AC00001008040010034653F802
:102A70002100904204DD481C53F82000904208DDFC
:102A800053F82100904206DA481C53F82000904287
:102A900001DB012070470020FCE7000008B500F0D2
:102AA000F7F9FFF711F8FDF76FFFFEF729FB1F4855
:102AB000006840F430701D4908600846006C40F022
:102AC000FF0008641AA232213C20FEF797FEFFF7B0
:102AD000E3FA1F231AA200210846FEF765FE192219
:102AE0001A4801881A48008800F068F81F2319A2C4
:102AF00032210020FEF758FE4FF478431AA24FF41B
:102B000098715020FEF750FE4FF4784319A2192116
:102B1000B420FEF749FE4FF4784040F23F13EF2215
:102B2000642100900020FEF7C3FA08BD00C0092010
:102B300041646A75737420546865204C43440000F6
:102B400050656E20436F6C6F723A00002C000010CD
:102B50002A0000105265636F676E697A65642052BF
:102B60006573756C743A00005772696E7420417217
:102B700065610000436C6561720000002DE9F84357
:102B800005460E4617461C466019F02809DAA019BA
:102B9000B0F5A07F05DA281900F0FF08301900F021
:102BA000FF0905480780E8B24B4642463146009788
:102BB000FEF77EFABDE8F8830000001070B5054608
:102BC0000E46144623461F2231462846FFF7D6FFFD
:102BD0002819801C85B223464FF478423146284696
:102BE000FFF7CCFF2819801C85B22346002231460E
:102BF0002846FFF7C3FF2819801C85B223464FF4EF
:102C0000FC6231462846FFF7B9FF70BD10B5044697
:102C10000C48006C40F0FF000A4908644FF40010B3
:102C200088618010C861084644654FF4801088614F
:102C3000FDF752FA4FF480100249C861201248652E
:102C4000012010BD00C0092010B54FF6FF70FEF73F
:102C500057F900200549088005A20021D820FEF779
:102C6000CDFD1F200149088010BD000000000010AC
:102C70005253540010B5FFF711FF00F09BF80020ED
:102C800010BD10B502460B460020022106E052F8A6
:102C90002140844201DD52F82100491C9942F6DBB3
:102CA00010BD10B502460B469068022106E052F8AE
:102CB0002140844201DA52F82100491C9942F6DB96
:102CC00010BD000010B500244FF4000016498861C3
:102CD000400088614000C86100BF0846006C20F0D9
:102CE000FF0008644FF40010C8618010C8613220F2
:102CF00000F0C8F90C48406DC3B24FF400200A49F7
:102D00008861322000F0BEF90748406D63F31F2050
:102D100003464FF400100449886100BF1C460001BF
:102D20008861204610BD000000C0092070B504462F
:102D300000254FF480000749C861E0B200F0A8F90F
:102D4000FFF7C0FF05464FF480000249886128461E
:102D500070BD000000C0092000B503461846FFF70B
:102D600025FA184600BD2DE9F04106460F46FDF74D
:102D7000F0FB04000D4618BF0120284320F000405E
:102D8000C0F17F6000F1E040C00F0FD0002E14BFF3
:102D900001200020384320F00040C0F17F6000F1A6
:102DA000E040C00F04BF0120FFF794FA20462946F7
:102DB000BDE8F08108B5012458E02D4800780128CD
:102DC00009D14FF6FF70FEF79BF8FEF72DFFFEF7D7
:102DD0000DFEFFF739FFFEF783F8254908702548F7
:102DE000007A012822D100240020FEF751FD00BF07
:102DF000FDF7C0FC00201F490872FFF74DFB1D487E
:102E0000408864280ADB1B480088002806DD194A30
:102E100051881078FDF704FDFFF7DCFD16480068C7
:102E20000028E5D00120FEF733FD1FE01420FFF756
:102E3000ACFB12480068002818DDBCB90F481049E7
:102E400002681048FFF7CCFB054629460EA0FFF7A5
:102E500023FA00200949086065200123EE22DB21C6
:102E600000904FF6FF70FEF76BF80124A5E7000015
:102E700091000010AC000010B40A3823300000109C
:102E800008040010E80000100A202563000000007C
:102E900010B54FF4E130FFF797F94FF4E130FFF749
:102EA00029F910BD2DE9F84F0E4600200027844671
:102EB00000234FF0010A8346CDF800B0814600257B
:102EC000DFF8C880360901212CE0002424E001FB52
:102ED00006FB01EB040EBBFBFEFCBCFBF2F3BCFBF0
:102EE000F2FB02FB1BCBBBEB520F00D95B1C022B8E
:102EF00011D9B3F5803F0ED2BCFBF3F7974201D84E
:102F0000D51B00E0BD1A454505D28A460094994676
:102F1000A84605B902E0641C0F2CD8D900BF05B93A
:102F200002E0491C0F29D0D900BF02EB420B4FF041
:102F3000640EBBFBFEFBC34525D9DFF854B09BF8FC
:102F40000CB04BF0800BDFF848E08EF80CB04FEA85
:102F5000192B8EF804B08EF80090F3469BF80CB055
:102F60000BF07F0B8EF80CB04FF0F00B0BEA0A1B46
:102F7000DDF800E00EF00F0E4BEA0E0BDFF810E06C
:102F80008EF828B00120BDE8F88F0000A08601006F
:102F900000C000402DE9F84F0E460020002784466F
:102FA00000234FF0010A8346CDF800B0814600258A
:102FB000DFF8C880360901212CE0002424E001FB61
:102FC00006FB01EB040EBBFBFEFCBCFBF2F3BCFBFF
:102FD000F2FB02FB1BCBBBEB520F00D95B1C022B9D
:102FE00011D9B3F5803F0ED2BCFBF3F7974201D85D
:102FF000D51B00E0BD1A454505D28A460094994686
:10300000A84605B902E0641C0F2CD8D900BF05B949
:1030100002E0491C0F29D0D900BF02EB420B4FF050
:10302000640EBBFBFEFBC34525D9DFF854B09BF80B
:103030000CB04BF0800BDFF848E08EF80CB04FEA94
:10304000192B8EF804B08EF80090F3469BF80CB064
:103050000BF07F0B8EF80CB04FF0F00B0BEA0A1B55
:10306000DDF800E00EF00F0E4BEA0E0BDFF810E07B
:103070008EF828B00120BDE8F88F0000A08601007E
:103080000080094000BF0100A0F10100FBD17047A2
:1030900010B504464FF400000849C86180008861FB
:1030A0002046FFF7B3FD4FF080700449C861FDF77B
:1030B00013F84FF080700149886110BD00C00920ED
:1030C00010B504464FF4000008498861800088610B
:1030D0002046FFF79BFD4FF080700449C861FCF764
:1030E000FBFF4FF080700149886110BD00C00920CE
:1030F00010B504462046FFF789FD4FF08070044963
:10310000C861FCF7E9FF4FF080700149886110BD8C
:1031100000C009204FF40000014988617047000099
:1031200000C009204FF48000014988617047000009
:1031300000C0092070B505460C464FF480000649D2
:10314000C8612846FFF7A4FF2046FFF7B9FF4FF4F8
:1031500080000149886170BD00C0092000000000A6
:10316000000000000000000000000000000000005F
:10317000000000000000000000000000000000004F
:1031800000000000000000000000000000008001BE
:103190008001800180018001800180018001800127
:1031A0008001800180018001000000008001800119
:1031B000000000000000000000000000000000000F
:1031C000CC00CC00CC00CC00CC00CC000000000037
:1031D00000000000000000000000000000000000EF
:1031E00000000000000000000000000000000000DF
:1031F0000000000000000000600C600C600C300655
:103200003006FE1FFE1F300638071803FE1FFE1F84
:10321000180318038C018C018C0100000000800051
:10322000E003F80F9C0E8C1C8C188C009800F801A1
:10323000E007800E801C8C188C189C18B80CF00FBE
:10324000E00380008000000000000000000000009B
:1032500000000E181B0C110C1106110611031103AE
:103260009B018E01C038C06C6044604430443044DF
:103270001844186C0C380000000000000000E00149
:10328000F0033807180618063003F001F000F800C4
:103290009C310E33061E061C061C063FFC73F021F3
:1032A000000000000000000000000000000000001E
:1032B0000C000C000C000C000C000C0000000000C6
:1032C00000000000000000000000000000000000FE
:1032D00000000000000000000000000000000002EC
:1032E00000038001C000C0006000600030003000BA
:1032F00030003000300030003000300060006000EE
:10330000C000C00080010003000200000000200097
:103310006000C00080018001000300030006000679
:103320000006000600060006000600060003000373
:1033300080018001C000600020000000000000004B
:103340000000000000000000C000C000D806F80720
:10335000E00130033807000000000000000000001A
:10336000000000000000000000000000000000005D
:103370000000000000000000800180018001800149
:103380008001FC3FFC3F80018001800180018001C1
:10339000000000000000000000000000000000002D
:1033A000000000000000000000000000000000001D
:1033B000000000000000000000000000000080018C
:1033C00080010001000180000000000000000000FA
:1033D00000000000000000000000000000000000ED
:1033E00000000000E007E00700000000000000000F
:1033F00000000000000000000000000000000000CD
:1034000000000000000000000000000000000000BC
:103410000000000000000000000000000000C000EC
:10342000C000000000000000000000000000000CD0
:10343000000C0006000600060003000300038003E2
:10344000800180018001C000C000C00060006000F9
:103450000000000000000000000000000000E00389
:10346000F007380E180C0C180C180C180C180C1847
:103470000C180C180C180C18180C380EF007E00378
:10348000000000000000000000000000000000013B
:103490008001C001F0019801880180018001800154
:1034A0008001800180018001800180018001800114
:1034B0000000000000000000000000000000E00329
:1034C000F80F180C0C180C1800180018000C000647
:1034D00000038001C000600030001800FC1FFC1FCA
:1034E0000000000000000000000000000000E001FB
:1034F000F807180E0C0C0C0C000C0006C003C007DB
:10350000000C001800180C180C18180CF807E00331
:103510000000000000000000000000000000000C9F
:10352000000E000F000F800DC00C600C600C300C02
:10353000180C0C0CFC3FFC3F000C000C000C000CA9
:103540000000000000000000000000000000F80F74
:10355000F80F180018000C00EC03FC071C0E001CF0
:103560000018001800180C181C0C180EF807E003BF
:103570000000000000000000000000000000C00784
:10358000F00F381C181818000C00CC03EC0F3C0E80
:103590001C1C0C180C180C18181C380EF007E00333
:1035A0000000000000000000000000000000FC1F00
:1035B000FC1F000C00060006000380038001C00110
:1035C000C000E0006000600070003000300030009B
:1035D0000000000000000000000000000000E00308
:1035E000F007380E180C180C180C3806F007F00706
:1035F000180C0C180C180C180C18380CF80FE003E9
:103600000000000000000000000000000000E003D7
:10361000F007380E1C0C0C180C180C181C1C381E4B
:10362000F81BE0190018000C000C1C0EF807F00144
:10363000000000000000000000000000000000008A
:103640000000000000000000800180010000000078
:103650000000000000000000000000008001800168
:10366000000000000000000000000000000000005A
:103670000000000000000000800180010000000048
:103680000000000000000000000000008001800138
:1036900000010001800000000000000000000000A8
:1036A0000000000000000000000000000010001CEE
:1036B000800FE003F8001800F800E003800F001C02
:1036C00000100000000000000000000000000000EA
:1036D000000000000000000000000000F81F0000D3
:1036E00000000000F81F00000000000000000000C3
:1036F00000000000000000000000000000000000CA
:103700000000000000000000000000000800380079
:10371000F001C007001F0018001FC007F0013800AB
:103720000800000000000000000000000000E003AE
:10373000F80F180C0C180C180018000C00060003E9
:103740008001C000C000C00000000000C000C00038
:103750000000000000000000000000000000000069
:10376000E00718180420C229224A114409440944D8
:10377000094409221113E20C024004201818E00742
:1037800000000000000000000000000000008003B6
:103790008003C006C006C006600C600C30183018EC
:1037A0003018F83FF83F1C700C600C6006C006C073
:1037B0000000000000000000000000000000FC030A
:1037C000FC0F0C0C0C180C180C180C0CFC07FC0F44
:1037D0000C180C300C300C300C300C18FC1FFC0793
:1037E0000000000000000000000000000000C00712
:1037F000F01F38381C300C7006600600060006000A
:1038000006000600060006600C701C30F01FE00782
:103810000000000000000000000000000000FE03A7
:10382000FE0F060E06180618063006300630063063
:1038300006300630063006180618060EFE0FFE0388
:103840000000000000000000000000000000FC3F3D
:10385000FC3F0C000C000C000C000C00FC1FFC1FBB
:103860000C000C000C000C000C000C00FC3FFC3F9A
:103870000000000000000000000000000000F83F11
:10388000F83F18001800180018001800F81FF81F5B
:103890001800180018001800180018001800180068
:1038A0000000000000000000000000000000E00F29
:1038B000F83F3C780E6006E007C00300030003FEFB
:1038C00003FE03C007C006C00EC03CF0F83FE00F87
:1038D00000000000000000000000000000000C30AC
:1038E0000C300C300C300C300C300C30FC3FFC3FFA
:1038F0000C300C300C300C300C300C300C300C30E8
:103900000000000000000000000000000000800136
:10391000800180018001800180018001800180019F
:10392000800180018001800180018001800180018F
:103930000000000000000000000000000000000681
:103940000006000600060006000600060006000647
:10395000000600060006180618063807F003E00106
:103960000000000000000000000000000000063021
:103970000618060C060606038601C60066007600D9
:10398000DE008E0106030606060C061806300660E9
:10399000000000000000000000000000000018000F
:1039A0001800180018001800180018001800180057
:1039B000180018001800180018001800F81FF81F49
:1039C00000000000000000000000000000000EE009
:1039D0001EF01EF01EF036D836D836D836D866CC53
:1039E00066CC66CCC6C6C6C6C6C6C6C686C386C3B1
:1039F00000000000000000000000000000000C308B
:103A00001C303C303C306C306C30CC30CC308C31A5
:103A10000C330C330C360C360C3C0C3C0C380C3094
:103A20000000000000000000000000000000E007AF
:103A3000F81F1C380E70066003C003C003C003C02B
:103A400003C003C003C006600E701C38F81FE007F7
:103A50000000000000000000000000000000FC0F5B
:103A6000FC1F0C380C300C300C300C300C18FC1FC8
:103A7000FC070C000C000C000C000C000C000C00EF
:103A80000000000000000000000000000000E0074F
:103A9000F81F1C380E70066003E003C003C003C0AB
:103AA00003C003C007E006630E3F1C3CF83FE0F78D
:103AB00000C0000000000000000000000000FE0F39
:103AC000FE1F06380630063006300638FE1FFE0799
:103AD00006030606060C06180618063006300660B1
:103AE0000000000000000000000000000000E003F3
:103AF000F80F1C0C0C180C180C001C00F803E00F3D
:103B0000001E0038063006300E301C1CF80FE0078F
:103B10000000000000000000000000000000FE7F28
:103B2000FE7F800180018001800180018001800191
:103B3000800180018001800180018001800180017D
:103B400000000000000000000000000000000C3039
:103B50000C300C300C300C300C300C300C300C3085
:103B60000C300C300C300C300C301818F81FE007FB
:103B700000000000000000000000000000000360E2
:103B80000630063006300C180C180C18180C180CDF
:103B9000380E30063006700760036003C001C001B4
:103BA00000000000000000000000000000000360B2
:103BB000C361C361C361663366336633663366339C
:103BC00066336C1B6C1B6C1B2C1A3C1E380E380E9B
:103BD00000000000000000000000000000000FE0F6
:103BE0000C7018303018700C600EC0078003800312
:103BF000C003E006700C301C18180C300E6007E093
:103C0000000000000000000000000000000003C0F1
:103C100006600C301C383818300C6006E007C00312
:103C2000800180018001800180018001800180018C
:103C30000000000000000000000000000000FC7F09
:103C4000FC7F006000300018000C000600038001BB
:103C5000C0006000300018000C000600FE7FFE7FF0
:103C60000000000000000000000000000000E00371
:103C7000E0036000600060006000600060006000C1
:103C80006000600060006000600060006000600034
:103C9000600060006000E003E0030000000030000E
:103CA0003000600060006000C000C000C000C001C3
:103CB000800180018001000300030003000600066C
:103CC0000000000000000000000000000000E00311
:103CD000E0030003000300030003000300030003EC
:103CE00000030003000300030003000300030003BC
:103CF000000300030003E003E003000000000000F5
:103D0000C001C00160036003600330063006180C78
:103D1000180C00000000000000000000000000007F
:103D20000000000000000000000000000000000093
:103D30000000000000000000000000000000000083
:103D40000000000000000000000000000000FFFF75
:103D5000FFFF0000000000000000000000000C0059
:103D60000C000C000C000C000C0000000000000017
:103D70000000000000000000000000000000000043
:103D80000000000000000000000000000000000033
:103D90000000000000000000F003F8071C0C0C0CF1
:103DA000000FF00FF80C0C0C0C0C1C0FF80FF01897
:103DB00000000000000000000000000000001800EB
:103DC0001800180018001800D803F80F380C18183D
:103DD00018181818181818181818380CF80FD803CD
:103DE00000000000000000000000000000000000D3
:103DF0000000000000000000C003F007300E180CA7
:103E00001800180018001800180C300EF007C00336
:103E1000000000000000000000000000000000188A
:103E20000018001800180018C01BF01F301C1818CC
:103E300018181818181818181818301CF01FC01B5C
:103E40000000000000000000000000000000000072
:103E50000000000000000000C003F00F300C181834
:103E6000F81FF81F180018003818301CF00FC00792
:103E70000000000000000000000000000000800FB3
:103E8000C00FC000C000C000F007F007C000C000B5
:103E9000C000C000C000C000C000C000C000C00022
:103EA0000000000000000000000000000000000012
:103EB0000000000000000000E00DF80F180E0C0CD0
:103EC0000C0C0C0C0C0C0C0C0C0C180EF80FE00D60
:103ED000000C0C0C1C06F807F00100000000180094
:103EE0001800180018001800D807F80F381C181808
:103EF0001818181818181818181818181818181842
:103F00000000000000000000000000000000C000F1
:103F1000C000000000000000C000C000C000C000E1
:103F2000C000C000C000C000C000C000C000C00091
:103F30000000000000000000000000000000C000C1
:103F4000C000000000000000C000C000C000C000B1
:103F5000C000C000C000C000C000C000C000C00061
:103F6000C000C000C000F8007800000000000C0095
:103F70000C000C000C000C000C0C0C060C038C014B
:103F8000CC006C00FC009C018C030C030C060C0C98
:103F90000000000000000000000000000000C00061
:103FA000C000C000C000C000C000C000C000C00011
:103FB000C000C000C000C000C000C000C000C00001
:103FC00000000000000000000000000000000000F1
:103FD00000000000000000007C3CFF7EC7E383C1BE
:103FE00083C183C183C183C183C183C183C183C1B1
:103FF00000000000000000000000000000000000C1
:1040000000000000000000009807F80F381C181886
:104010001818181818181818181818181818181820
:104020000000000000000000000000000000000090
:104030000000000000000000C003F00F300C181852
:1040400018181818181818181818300CF00FC00382
:104050000000000000000000000000000000000060
:104060000000000000000000D803F80F380C1818FA
:1040700018181818181818181818380CF80FD8032A
:1040800018001800180018001800000000000000B8
:104090000000000000000000C01BF01F301C1818BA
:1040A00018181818181818181818301CF01FC01BEA
:1040B0000018001800180018001800000000000088
:1040C0000000000000000000B007F00370003000A6
:1040D0003000300030003000300030003000300060
:1040E00000000000000000000000000000000000D0
:1040F0000000000000000000E003F003380E180C80
:104100003800F003C007000C180C380EF007E0036D
:10411000000000000000000000000000000000009F
:104120008000C000C000C000F007F007C000C00061
:10413000C000C000C000C000C000C000C0078007B1
:10414000000000000000000000000000000000006F
:10415000000000000000000018181818181818189F
:1041600018181818181818181818381CF01FE01903
:10417000000000000000000000000000000000003F
:1041800000000000000000000C18180C180C180C9F
:10419000300630063006600360036003C001C001D2
:1041A000000000000000000000000000000000000F
:1041B0000000000000000000C141C141C361636311
:1041C000636363633636363636361C1C1C1C1C1C77
:1041D00000000000000000000000000000000000DF
:1041E00000000000000000001C38381C300C600685
:1041F000C003C003C003C0036006300C381C1C3869
:1042000000000000000000000000000000000000AE
:10421000000000000000000018303018301870183E
:10422000600C600CE00CC006C006800380038003B5
:1042300080018001C001F00070000000000000005B
:104240000000000000000000FC1FFC1F000C000626
:1042500000038001C000600030001800FC1FFC1F3C
:10426000000000000000000000000000000000034B
:104270008001C000C000C000C000C000C0006000DD
:104280006000300060004000C000C000C000C000FE
:10429000C000C00080010003000000000000800199
:1042A0008001800180018001800180018001800106
:1042B00080018001800180018001800180018001F6
:1042C0008001800180018001800100000000600009
:1042D000C000C001800180018001800180010003D5
:1042E00000030006000300018001800180018001BD
:1042F00080018001C000600000000000000000009C
:10430000000000000000000000000000F010F81F96
:10431000080F000000000000000000000000000086
:10432000000000000000000000000000000000008D
:10433000000000000000000000000000000000007D
:10434000000000000000000000000000000000006D
:10435000000000000000000000000000000000005D
:10436000000000000000C003300C081004200420EE
:104370000240024002400240024004200420081093
:10438000300CC0030000000000000000000000002E
:10439000000000000000C003F00FF81FFC3FFC3FCE
:1043A000FE7FFE7FFE7FFE7FFE7FFC3FFC3FF81F0F
:1043B000F00FC0030000000000000000000000003B
:1043C00000000000000000000000E007F00F1818D7
:1043D00018181818181818181818F00FE007000007
:1043E00000000000000000000000000000000000CD
:1043F00000000000000000000000E007F00FF81FC0
:10440000F81FF81FF81FF81FF81FF00FE007000053
:10441000000000000000000000000000000000009C
:10442000000000000000000000000000000000008C
:10443000000000008001C0036006300C1818181836
:10444000F81FF81F0000000000000000000000003E
:10445000000000000000000000000000000000005C
:10446000000000008001C003E007F00FF81FF81FF4
:10447000F81FF81F0000000000000000000000000E
:1044800000000000F81FF81F18181818300C6006FC
:10449000C0038001000000000000000000000000D8
:1044A000000000000000000000000000000000000C
:1044B00000000000F81FF81FF81FF81FF00FE007BA
:1044C000C0038001000000000000000000000000A8
:1044D00000000000000000000000000000000000DC
:1044E00000000000000000000000E001F001980161
:1044F0008C01860186018C019801F001E001000029
:1045000000000000000000000000000000000000AB
:1045100000000000000000000000E001F001F801D0
:10452000FC01FE01FE01FC01F801F001E0010000C8
:10453000000000000000000000000000000000007B
:10454000000000000000000000008007800F8019BC
:1045500080318061806180318019800F8007000088
:10456000000000000000000000000000000000004B
:10457000000000000000000000008007800F801F86
:10458000803F807F807F803F801F800F80070000FA
:104590000000000000000000000000000000C0015A
:1045A0002002200240013006080808080808080810
:1045B0000808080808082002200220022002200221
:1045C0002002200220022002200200000000C00180
:1045D000E003E003C001F007D80DD80DD80DD80DC9
:1045E000D80DD80DD80D600360036003600360032D
:1045F0006003600360036003600300000000C0010B
:1046000020022002400130060808080808080410AB
:10461000022002204001200220021004080808089D
:104620000410041004200440000000000000C00139
:10463000E003E003C001F007D80DD80DD80DCC1968
:10464000C631C261C001600360037006380C180CEB
:104650000C180C180C300C6000000000000000006A
:104660000000000000000000000004040404040432
:104670000004000000140A0A00000000000000000E
:10468000000014143F140A3F0A0A000000041E151B
:1046900005060C14150F0400000012150D0A142C49
:1046A0002A1200000000040A0A1E1515093600002F
:1046B00000020201000000000000000000201008BD
:1046C0000808080808102000000204080808080864
:1046D0000804020000000004150E0E15040000007E
:1046E00000000404041F0404040000000000000093
:1046F000000000000002020100000000001F000096
:1047000000000000000000000000000000020000A7
:1047100000100808080404020202010000000E1143
:1047200011111111110E000000000406040404040C
:10473000040E000000000E1111080402011F000009
:1047400000000E11100C1010110E00000000080CDB
:104750000A0A091E0818000000001F01010F1010AE
:10476000110E000000000E09010F1111110E0000C2
:1047700000001F09080404040404000000000E11D6
:10478000110E1111110E000000000E1111111E105A
:10479000120E0000000000000400000000040000F1
:1047A00000000000000400000004040000201008C5
:1047B0000402040810200000000000001F00001F79
:1047C000000000000002040810201008040200008D
:1047D00000000E11110804040004000000000E1176
:1047E0001915151D011E0000000004040C0A0A1E04
:1047F0001233000000000F12120E1212120F0000EE
:1048000000001E1101010101110E000000000F1235
:1048100012121212120F000000001F120A0E0A02DA
:10482000121F000000001F120A0E0A0202070000F9
:1048300000001C1201013911120C0000000033129B
:10484000121E12121233000000001F04040404049C
:10485000041F000000003E080808080808090700B7
:10486000000037120A060A0A123700000000070289
:1048700002020202223F000000001B1B1B1B151539
:104880001515000000003B1216161A1A1217000028
:1048900000000E1111111111110E000000000F1275
:1048A000120E02020207000000000E111111111772
:1048B000190E180000000F12120E0A121237000013
:1048C00000001E1101060810110F000000001F1546
:1048D00004040404040E0000000033121212121229
:1048E000120C000000003312120A0A0C040400002B
:1048F00000001515150E0A0A0A0A000000001B0A1E
:104900000A04040A0A1B000000001B0A0A0404042B
:10491000040E000000001F0908040402121F00001A
:10492000001C04040404040404041C000002020229
:104930000404080808100000000E08080808080809
:1049400008080E0000040A0000000000000000003B
:1049500000000000000000000000003F0004000014
:10496000000000000000000000000000000C121C0D
:10497000123C000000000302020E1212120E000090
:1049800000000000001C1202021C000000001810B1
:10499000101C1212123C000000000000000C121E3D
:1049A000021C000000003804041E0404041E000061
:1049B00000000000003C120C021E221C000003023A
:1049C000020E121212370000000004000006040458
:1049D000040E000000000800000C08080808080782
:1049E00000000302023A0A0E12370000000007041A
:1049F00004040404041F000000000000000F15154B
:104A00001515000000000000000F12121237000000
:104A100000000000000C1212120C00000000000048
:104A2000000F1212120E020700000000001C1212EA
:104A3000121C103800000000001B060202070000D4
:104A400000000000001E020C101E00000000000408
:104A5000040E04040418000000000000001B1212E1
:104A6000123C0000000000000037120A0C04000095
:104A7000000000000015150E0A0A000000000000EA
:104A8000001B0A040A1B0000000000000037120A85
:104A90000C04040300000000001E0804041E0000B3
:104AA000001808080804080808081800080808087A
:104AB0000808080808080808000604040408040494
:104AC0000404060002251800000000000000000099
:104AD00000000000000000000000000000000000D6
:104AE000000000080808080808080000181800005E
:104AF00000486C24120000000000000000000000CC
:104B00000000002424247F1212127F1212120000CF
:104B10000000081C2A2A0A0C1828282A2A1C08081F
:104B200000000022251515152A585454542200005F
:104B30000000000C1212120A76252911916E000055
:104B40000006060403000000000000000000000052
:104B50000040201010080808080808101020400025
:104B600000020408081010101010100808040200B9
:104B70000000000008086B1C1C6B08080000000007
:104B800000000000080808087F0808080800000066
:104B90000000000000000000000000000606040302
:104BA0000000000000000000FE0000000000000007
:104BB00000000000000000000000000006060000E9
:104BC0000000804040202010100808040402020069
:104BD000000000182442424242424242241800008F
:104BE000000000080E08080808080808083E000031
:104BF0000000003C4242422020100804427E000097
:104C00000000003C4242201820404042221C00008C
:104C1000000000203028242422227E20207800005A
:104C20000000007E0202021A26404042221C0000C0
:104C3000000000382402021A2642424224180000D2
:104C40000000007E22221010080808080808000052
:104C50000000003C4242422418244242423C0000F0
:104C6000000000182442424264584040241C0000C6
:104C700000000000000018180000000018180000D4
:104C80000000000000000008000000000008080408
:104C9000000000402010080402040810204000001A
:104CA0000000000000007F0000007F000000000006
:104CB0000000000204081020402010080402000038
:104CC0000000003C4242464020101000181800002E
:104CD0000000001C225A555555552D42221C00003B
:104CE0000000000808181414243C224242E7000087
:104CF0000000001F2222221E22424242221F0000E8
:104D00000000007C4242010101010142221C00001E
:104D10000000001F2242424242424242221F000043
:104D20000000003F4212121E12120242423F0000D7
:104D30000000003F4212121E12120202020700007F
:104D40000000003C2222010101712122221C0000EE
:104D5000000000E7424242427E42424242E70000F7
:104D60000000003E0808080808080808083E00007F
:104D70000000007C10101010101010101010110FF7
:104D80000000007722120A0E0A1212222277000077
:104D9000000000070202020202020202427F00003B
:104DA00000000077363636362A2A2A2A2A6B000077
:104DB000000000E346464A4A5252526262470000EF
:104DC0000000001C2241414141414141221C0000A0
:104DD0000000003F424242423E020202020700003F
:104DE0000000001C2241414141414D53321C6000F2
:104DF0000000003F4242423E1212222242C70000FF
:104E00000000007C4242020418204042423E000062
:104E10000000007F4908080808080808081C00006E
:104E2000000000E74242424242424242423C00000D
:104E3000000000E74242222424141418080800004D
:104E40000000006B4949494955553622222200008D
:104E5000000000E7422424181818242442E7000028
:104E6000000000772222141408080808081C00001B
:104E70000000007E2120101008040442423F000080
:104E800000780808080808080808080808087800D2
:104E900000000202040408080810102020204040EE
:104EA000001E1010101010101010101010101E0006
:104EB0000038440000000000000000000000000076
:104EC000000000000000000000000000000000FFE3
:104ED00000060800000000000000000000000000C4
:104EE000000000000000003C4278444242FC000008
:104EF000000000030202021A26424242261A000063
:104F000000000000000000384402020244380000A3
:104F100000000060404040784442424264D80000B3
:104F2000000000000000003C427E0202423C000003
:104F3000000000F08808087E08080808083E000005
:104F4000000000000000007C22221C023C42423C87
:104F5000000000030202023A4642424242E70000D9
:104F60000000000C0C00000E08080808083E0000B5
:104F70000000003030000038202020202020221E99
:104F80000000000302020272120A161222770000C9
:104F90000000000E0808080808080808083E00007D
:104FA000000000000000007F9292929292B70000F1
:104FB000000000000000003B4642424242E7000081
:104FC000000000000000003C42424242423C00001F
:104FD000000000000000001B26424242221E020781
:104FE000000000000000007844424242447840E063
:104FF00000000000000000774C040404041F0000BF
:10500000000000000000007C42023C40423E0000E4
:10501000000000000008083E0808080808300000EA
:1050200000000000000000634242424262DC0000D7
:1050300000000000000000E74224241408080000DB
:1050400000000000000000EB4949555522220000F5
:10505000000000000000007624181818246E0000DC
:1050600000000000000000E742242414180808078C
:10507000000000000000007E22100808447E0000AE
:1050800000C0202020202010202020202020C00030
:105090001010101010101010101010101010101010
:1050A000000608080808081008080808080806008C
:1050B0000C32C200000000000000000000000000F0
:1050C000E050000000000010AC000000B82200001A
:1050D0008C510000AC0000103C110000C622000002
:1050E0000000FFFF0000FFFF0000000000000000C4
:1050F00000000000000000000000000000000000B0
:105100000000000000000000190000001400000072
:105110000000000000000000E612CFA3697ACE3C38
:10512000FCF672FAE647B33963716698C01B963C89
:10513000D58DAFFB9AA0103D4C0ED66EF7D6F13A46
:10514000184C1B74D63CC63CB563BBCD3458673D88
:10515000D1C8AAE778076F3B593129312D146D3E2C
:105160004A366EC2A405163D8E22F2096B43373EC5
:10517000000000000000000000000000000000002F
:0C51800000093D0000E1F5050000000002
:04000005000000C532
:00000001FF
