:020000040000FA
:10000000D0080010DD000000E5000000E70000005F
:10001000E9000000EB000000ED000000000000001F
:10002000000000000000000000000000EF000000E1
:10003000F100000000000000F3000000F5000000E7
:10004000F7000000F7000000F7000000F7000000D4
:10005000F7000000F7000000F7000000F7000000C4
:10006000F7000000F7000000C10A0000F7000000E0
:10007000F7000000F7000000F7000000F7000000A4
:10008000F7000000F7000000F7000000F700000094
:10009000F700000061090000F7000000F700000011
:1000A000F7000000F7000000F7000000F700000074
:1000B000F7000000F7000000F7000000F700000064
:1000C000F7000000DFF80CD000F094FA0048004779
:1000D00055390000D008001000BF7047064880471F
:1000E00006480047FEE7FEE7FEE7FEE7FEE7FEE71D
:1000F000FEE7FEE7FEE7FEE75D1B0000C50000002F
:10010000F0B480EA0102D40F4200B2EB410F02D2F8
:100110000246084611464A0042D0C30DDDB2C1F383
:10012000C752AD1A202D35DAC1F3160141F4000291
:1001300004B15242C5F1200602FA06F12A411044E8
:10014000B3EBD05F23D0C4B1012DA0EBC35009DCC9
:10015000F0BC4FF0004202EAC35200F50000DBB2EF
:1001600000F06BB9400000F1807000EBC350A0F1CB
:10017000807040EAD170490009E0490841EAC07145
:10018000A0EBC35000F50000400800EBC350F0BCEA
:1001900000F04AB96142012202EB4101001BF6E77F
:1001A000F0BC704781F00041AAE780F00040A7E76B
:1001B00080EA010210B502F00043400026D04A0058
:1001C00023D04FEA106101EB1261C0F35600C2F375
:1001D000560240F4000042F40002A0FB0220A1F10C
:1001E0007F014FEA0040140401D000F1010050EA01
:1001F000124001D44000491EC2B20C0604EBD010DC
:10020000401C4008802A02D003E0002010BD20F0EE
:100210000100002900DA0020184310BD30B480EA44
:10022000010202F0004530F0004221F0004015D0FC
:10023000A0B1C0F3C753C2F3C754C2F31601C0F351
:100240001600E41A41F4000140F400027D349142AA
:1002500001D3641C00E04900002C02DA30BC00200D
:1002600070474FF400000023914201D3891A0343E1
:1002700040084FEA4101F7D151B1914202D14FF00C
:10028000004105E002D24FF0010101E06FF00101F1
:1002900003EBC450284430BC00F0C6B8C10F80EA5C
:1002A000E0700844CA079623002100F0C6B89623E0
:1002B0000022114600F0C1B80EB540F23341029160
:1002C0000021CDE900110A460B4600F0F0F803B01A
:1002D00000BD20F00040C10DC0F3160040F4000046
:1002E0007F2901DA00207047962903DCC1F19601CD
:1002F000C84070479639884070477047FFFFFFFF3E
:1003000000F0004220F00040C10DC0F3160040F4A0
:1003100000007F2901DA00207047962903DCC1F133
:100320009601C84001E096398840002AF4D0404246
:100330007047C1F30A5210B5C1F3130140F2FF3305
:1003400041F480119A4201DA002010BD40F233439B
:100350009A42A2F2334203DC524200F055F810BD3B
:10036000904010BD00F0004230F000400AD0C10DB6
:1003700001F56071C0F3160042EA0151C20840075E
:1003800011437047002001467047000030B5002936
:1003900004DB4FF00044404264EB0101002B04DB1E
:1003A0004FF00044524264EB03038B4208BF824289
:1003B00030BD000030B5002904DB4FF0004440425E
:1003C00064EB0101002B04DB4FF00044524264EB6C
:1003D0000303994208BF904230BD000030B50B4680
:1003E000014600202022012409E021FA02F59D4265
:1003F00005D303FA02F5491B04FA02F52844151E39
:10040000A2F10102F1DC30BD202A04DB203A21FAFE
:1004100002F00021704721FA02F3D040C2F120021D
:1004200091400843194670470029A8BF7047401CF7
:10043000490008BF20F00100704710B4B0FA80FCFA
:1004400000FA0CF050EA010404BF10BC704749B137
:10045000CCF1200421FA04F411FA0CF118BF0121A7
:1004600021430843A3EB0C01CB1D0106000A002B1E
:10047000BEBF002010BC704700EBC35010440029E1
:10048000A4BF10BC7047401C490008BF20F0010009
:1004900010BC704710B5002B08DA401C41F1000178
:1004A00092185B411A4301D120F0010010BD2DE9E3
:1004B000F04D92469B4611B1B1FA81F202E0B0FADA
:1004C00080F22032904600F0A7F804460F4640EA3A
:1004D0000A0041EA0B0153465A46084303D120461D
:1004E0003946BDE8F08D114653EA010015D0C8F138
:1004F00040025046FFF788FF05460E4650465946D3
:10050000424600F089F8084301D0012000E00020B5
:10051000054346EAE0762C4337430A984FEA4453B2
:10052000A0EB08004FEAD4240A304FF0000244EA5E
:1005300047544FEAD72502D500200146D1E70105EF
:1005400010196941DDE9084500196941BDE8F04D20
:10055000A0E72DE9F04D00231A461B1A8A4103DB60
:1005600000200146BDE8F08DC1F30A52C1F313012A
:1005700041F480154FF0000BD10702D100186D41F6
:10058000521E0027044640F2FF11384601EB620A72
:100590003E468046024600204FF48011FFF734FFAC
:1005A000C2197141BB1846EB0100B4EB030C75EBAB
:1005B000000C04D3E41A65EB000517460E46241917
:1005C00008F101006D4180463428E3DDF91946EB5E
:1005D0000600091BA84103D24FF0FF32134601E089
:1005E000002213461BEB070046EB0A51BDE8F04D15
:1005F000FFF750BF064C074D06E0E06840F00103EE
:1006000094E8070098471034AC42F6D3FFF75EFD3C
:10061000145E0000345E0000202A04DB203A00FA59
:1006200002F1002070479140C2F1200320FA03F349
:10063000194390407047000070B50646002500241D
:1006400080201949C8614020C8618020C8610A2003
:1006500002F096F8304600F069F80D2002F090F8AC
:1006600080201149C861012002F08AF800BF13E020
:100670004FF6FF7000EA440480200B49C861012056
:1006800002F07EF88020084988610848006808B1B7
:10069000601C84B2681CC5B2102DE9DB2411402017
:1006A00001498861204670BD00C00920A00238239E
:1006B0002DE9F04188B080460027002406E040463E
:1006C000FFF7BAFF2DF81400601C84B20F2CF6DB84
:1006D000002416E0601C85B20FE03DF814003DF8E0
:1006E0001510884207DD3DF814603DF815002DF81F
:1006F00014002DF81560681C85B20F2DEDDB601C11
:1007000084B20E2CE6DB0027052405E03DF814003A
:10071000384487B2601C84B20A2CF7DB052097FBB3
:10072000F0F086B2304608B0BDE8F08110B503465F
:10073000002400BF18E013F0800F04D04FF40070C5
:100740000B49886103E04FF400700949C8615806FD
:10075000030E80200649C861012002F011F88020B4
:1007600003498861601CC4B2082CE4DB10BD0000A2
:1007700000C009202DE9F0411F49881E01F0FBF857
:10078000B8B31D49891FB1F91400FFF787FD06466C
:100790001949891F8888FFF78AFD07461648801F78
:1007A000C1683846FFF704FD05463146FFF7A8FC4F
:1007B0000446FFF78EFD1049891F0880B1F9160025
:1007C000FFF76CFD06460C49891FC888FFF76FFDCF
:1007D00007460948801F01693846FFF7E9FC0546CE
:1007E0003146FFF78DFC0446FFF773FD0249891F70
:1007F0004880BDE8F08100005A00001010B50021CB
:100800000BE0002205E0002300E05B1C642BFCD31E
:10081000521CB2F57A7FF6D3491C8142F1D310BD48
:1008200070B504460D462946204600F007FC2946CF
:10083000601C00F003FC681C81B2204600F0FEFB47
:10084000681C81B2601C00F0F9FB70BD2DE9F04717
:1008500006460F469046002445460320A0EB480973
:1008600048E03A1B91B2721B90B200F0E7FB3A1BD2
:1008700091B2721990B200F0E1FB7A1991B2321B79
:1008800090B200F0DBFB3A1B91B2721B90B200F009
:10089000D5FB7A1B91B2321B90B200F0CFFB3A1914
:1008A00091B2721990B200F0C9FB7A1B91B2321961
:1008B00090B200F0C3FB7A1991B2321990B200F0F5
:1008C000BDFB3A1991B2721B90B200F0B7FB641CE9
:1008D000B9F1000F03DAA000801D814404E0601B21
:1008E00080000A3081446D1E7A1991B2321990B29B
:1008F00000F0A4FBAC42B4DDBDE8F08770B504465F
:100900000D46A4F10C0188B22B4604F10D022946D4
:1009100000F03CFB05F10D0083B2193881B222468C
:10092000204600F033FB681C81B2601C00F086FB9F
:100930006A1C91B2621E90B200F080FB681E81B208
:10094000601C00F07BFB6A1E91B2621E90B200F048
:1009500075FB062229462046FFF778FF70BD000090
:1009600000B5012001F00CFF0448006810B9012017
:100970000349087208200349086000BDB40A3823FF
:100980005400001040C10F4010B54FF0806008497E
:1009900008610820074908604FF000000649C1F8C7
:1009A0004C014FF0150000F0B0FF012010BD000019
:1009B00000C0024048C10F4000C00F40FEB50820F3
:1009C00001AB202201210090A02000F0C1F90546D2
:1009D0009DF80400FF286CD1002404E0002001A948
:1009E0000855601CC4B2082CF8DB082001AB0022BB
:1009F00001210090A02000F0ABF99DF8070000064F
:100A00009DF8061040EA01409DF8051040EA0120DB
:100A10009DF8041040EA01052846FFF73FFC064612
:100A20002549FFF7FBFB2549C860082001AB0246BA
:100A300001210090A02000F08BF99DF8070000062E
:100A40009DF8061040EA01409DF8051040EA01209B
:100A50009DF8041040EA01052846FFF71FFC0646F2
:100A60001549FFF7DBFB15490861082001AB10228F
:100A700001210090A02000F06BF99DF804009DF882
:100A8000051040EA012528B20C498882082001ABF4
:100A9000182201210090A02000F05AF99DF80400CE
:100AA0009DF8051040EA012528B20449C8820120BA
:100AB000FEBD0020FCE7000020BCBE4C540000102E
:100AC00010B58048406800F0F80414F0070F70D1AA
:100AD000E0100C286DD2DFE800F0F1061920B721F4
:100AE000B8B9A8BAC1DE78480078012806D177489D
:100AF000007800F0FE007349886003E073480078D6
:100B00007049886028206F498861D8E06F48007874
:100B10006C49886028208861D1E000BF6A4800786D
:100B200000BB6B480068A8B16A4800680078654956
:100B3000886068480068401C664908602820614950
:100B4000886163480068401E614908600120FFF722
:100B500055FE07E010205B490860282088610120CD
:100B60005D4908705848007801282FD15B4800780B
:100B700002280DD15A480068C0F307205149886007
:100B80002820886155480078401E5449087096E036
:100B90005248007801280DD151480068C0B2494937
:100BA0008860282088614D480078401E4B490870B5
:100BB00085E083E04948007840B9082041498861D0
:100BC0002020086000204049087078E03E48007806
:100BD000022829D141480078002825DD3F480078C7
:100BE00002280DD13E480068C0F3072035498860CF
:100BF0002820886139480078401E384908705EE036
:100C00003648007801280FD135480068C0B22D4918
:100C100088602820886131480078401E2F4908707C
:100C20000020294908704AE049E029480068012865
:100C300003D804202349886102E004202149086088
:100C40002820204988613AE000BF00BF00BF28206B
:100C50001C498861FF202049087030E019488068ED
:100C60001C49096808701B480068401C1949086045
:100C700017480068401E16490860084600680128A9
:100C800003D12C200F49886104E004200D4908603D
:100C90002820886113E00B4880680E4909680870B5
:100CA0000C480068401C0B4908601020054908608A
:100CB0002820886101200849087000E000BF00BFBB
:100CC00010BD000000C00140210000100C00001009
:100CD0001C0000101800001020000010140000106C
:100CE0001000001010B501461548006840F40020BF
:100CF000144AC2F8C4001448406820F07070124AC8
:100D000050601046406840F0A07050604FF0800086
:100D10000E4A50611061022901D1A020D0600A2042
:100D20000122824043094FF0E02404EB8303C3F81F
:100D3000002100BF4020054A1060012010BD0000C6
:100D4000C4C00F4000C00F4000C0024000C00140BE
:100D50002DE9F04105460E4614461F46DDF8188081
:100D6000B8F1000F45D0012E07D1681C2349087047
:100D700023480460012023490870022E07D1681C13
:100D80001E4908701E48046002201E490870032E88
:100D90000CD10E2000EAD4102844401C17490870DA
:100DA000E0B217490860012016490870164807602C
:100DB0001648C0F800800120154908700020154928
:100DC00008702C20144988616020086000BF114819
:100DD00000780028FBD00F48007828B11420FFF7D6
:100DE0000DFD0120BDE8F0811420FFF707FD002074
:100DF000F8E71420FFF702FD0020F3E70C000010D5
:100E00001000001014000010180000101C0000104A
:100E1000210000102000001000C001402DE9F04129
:100E200005460E4614461F46DDF81880B8F1000F3F
:100E300041D0012E06D122480570224804600120CD
:100E400021490870022E06D11D4805701D48046016
:100E500002201D490870032E0AD10E2000EAD4108A
:100E60002844174908701748046001201649087083
:100E7000164807601648C0F800800220154908701F
:100E80000020154908702C201449886160200860F2
:100E900000BF114800780028FBD00F48007828B127
:100EA0001420FFF7ABFC0120BDE8F0811420FFF710
:100EB000A5FC0020F8E71420FFF7A0FC0020F3E7D2
:100EC0000C0000101000001014000010180000109A
:100ED0001C000010210000102000001000C0014084
:100EE00000B50648006810B9022001F02CFC034848
:100EF000006808B9012000BD0020FCE7A80A3823DB
:100F000070B5054600F0E9FC0021084600F07CFBC6
:100F10004FF480000949C861222002F063FF02F00B
:100F2000A3FF002403E0284602F08CFF641CB4F504
:100F3000963FF8D302F0A0FF70BD000000C009206A
:100F40002DE9F04780460C4615461E46DDF82090F8
:100F50004946304600F058FB4FF480000A49C8610A
:100F6000222002F03FFF02F07FFF002703E040460F
:100F700002F068FF7F1C04FB05F0B842F7D802F0CE
:100F80007BFFBDE8F087000000C009202DE9FF4F7E
:100F900085B081468A460020049003900798A0EB14
:100FA00009050898A0EB0A06CDF80890CDF804A032
:100FB000002D01DD012705E00DB9002702E04FF00B
:100FC000FF376D42002E02DD4FF0010806E016B932
:100FD0004FF0000802E04FF0FF387642B54201DDE5
:100FE0002C4600E034464FF0000B21E0019A91B20C
:100FF000029A90B200F022F80498284404900398D2
:10100000304403900498A04205DD0498001B04902E
:101010000298384402900398A04205DD0398001B13
:1010200003900198404401900BF101001FFA80FBEE
:10103000601C8345DADD09B0BDE8F08F70B5044669
:101040000D4600F04AFCE0B2294600F0DDFA4FF40C
:1010500080000749C861222002F0C4FE02F004FFAC
:101060000448008802F0EEFE02F006FF70BD0000AA
:1010700000C009200000001070B504460E46154659
:1010800000F02BFCE0B2314600F0BEFA4FF48000D5
:101090000649C861222002F0A5FE02F0E5FE2846BE
:1010A00002F0D0FE02F0E8FE70BD000000C0092092
:1010B0002DE9F04104460D4616461F46DDF818801E
:1010C0000E48A0F800802B46324629462046FFF7FE
:1010D0005DFF3B46224629462046FFF757FF3B4629
:1010E000324639462046FFF751FF3B4632462946F5
:1010F0003046FFF74BFFBDE8F08100000000001014
:1011000010B5FE48006C40F0FF00FC49086408463A
:10111000006840F07E7008604FF07E7088610520A6
:1011200001F00AFB002002F07BFCF549088048F63C
:101130009910088008460088A0F51341253905D08C
:10114000EF480088A0F5134128397DD11021E72010
:1011500002F09AFE0121002002F096FE4FF4807109
:10116000012002F091FE4FF4E061022002F08CFEBB
:1011700041F23001032002F087FE0021042002F03A
:1011800083FE40F20721082002F07EFE00210920A4
:1011900002F07AFE00210A2002F076FE01210C20E6
:1011A00002F072FE00210D2002F06EFE00210F20E1
:1011B00002F06AFE0021102002F066FE07211120D5
:1011C00002F062FE0021122002F05EFE00211320D8
:1011D00002F05AFE052001F0AFFA41F290511020C2
:1011E00002F052FE40F22721112002F04DFE0520B0
:1011F00001F0A2FA9C21122002F046FE052001F027
:101200009BFA4FF4C851132002F03EFE23212920FF
:1012100002F03AFE0E212B2002F036FE052001F0EE
:101220008BFA0021202002F02FFE40F23F112120F6
:1012300002F02AFE052001F07FFA0721302002F09B
:1012400023FE40F2077100E087E0312002F01CFE2F
:101250000621322002F018FE40F20471352002F01F
:1012600013FE41F60471362002F00EFE04213720F1
:1012700002F00AFE0021382002F006FE40F206715C
:10128000392002F001FE40F201713C2002F0FCFD29
:101290000F213D2002F0F8FD052001F04DFA00215C
:1012A000502002F0F1FDEF21512002F0EDFD002170
:1012B000522002F0E9FD40F23F11532002F0E4FD1C
:1012C0004FF42741602002F0DFFD0121612002F090
:1012D000DBFD00216A2002F0D7FD0021802002F012
:1012E000D3FD0021812002F0CFFD0021822002F0F9
:1012F000CBFD0021832002F0C7FD0021842002F0F5
:10130000C3FD0021852002F0BFFD1021902002F0D6
:10131000BBFD0021922002F0B7FD0321932002F0D3
:10132000B3FD4FF48871952002F0AEFD00219720A7
:1013300002F0AAFD0021982002F0A6FD40F2331130
:10134000072002F0A1FD0021202002F09DFD40F2C7
:101350003F11212002F098FD55E169480088A0F571
:101360001341203904D066480088B0F5134F7DD171
:101370000021084602F088FD4FF48071012002F040
:1013800083FD4FF4E061022002F07EFD41F2300166
:10139000032002F079FD0021042002F075FD40F2E7
:1013A0000221082002F070FD0021092002F06CFDEE
:1013B00000210A2002F068FD01210C2002F064FDEA
:1013C00000210D2002F060FD00210F2002F05CFDE5
:1013D000052001F0B1F940F20111072002F054FD9F
:1013E000052001F0A9F94FF48651102002F04CFDC0
:1013F0000721112002F048FD4FF48871122002F0FD
:1014000043FD4FF43061132002F03EFD00212920FE
:1014100002F03AFD44F210012B2002F035FD0021CC
:10142000502002F031FDEF21512002F02DFD00216E
:10143000522002F029FD40F23F11532002F024FD1A
:101440004FF41C51602002F01FFD0121612002F0C9
:101450001BFD00216A2002F017FD0021802002F010
:1014600013FD0021812002F00FFD00E02EE000219D
:10147000822002F009FD0021832002F005FD0021F9
:10148000842002F001FD0021852002F0FDFC1021E6
:10149000902002F0F9FC0021922002F0F5FC0121DD
:1014A000932002F0F1FC4FF48871952002F0ECFCDF
:1014B0000021972002F0E8FC0021982002F0E4FCD3
:1014C00040F27311072002F0DFFC9CE00C4800881A
:1014D000A0F509419939F8D10121002002F0D4FC8E
:1014E00043F63F31012002F0CFFC4FF4C0610220EF
:1014F00002F0CAFC07210C2004E0000000C0092013
:101500000800001002F0C0FC06210D2002F0BCFC17
:101510004FF448510E2002F0B7FCBB211E2002F010
:10152000B3FC46F66421032002F0AEFC00210F203C
:1015300002F0AAFC4FF46F41442002F0A5FC002108
:10154000452002F0A1FC40F23F11462002F09CFC35
:101550000021302002F098FC40F20671312002F0A8
:1015600093FC40F20621322002F08EFC4FF44071D1
:10157000332002F089FC0221342002F085FC002196
:10158000352002F081FC40F20771362002F07CFC2D
:101590004FF40071372002F077FC40F608113A2032
:1015A00002F072FC40F60D713B2002F06DFC06214A
:1015B000282002F069FC41F2EB212F2002F064FCAC
:1015C0004FF4E041262002F05FFC4BF2E3012020C3
:1015D00002F05AFC4421272002F056FC47F64561F0
:1015E0002E2002F051FC0021102002F04DFC0820BA
:1015F00001F0A2F846F67001112002F045FC3321FB
:10160000072002F041FC10BD70B504460D460F489E
:101610000088A0F50941993905D00C480088A0F54B
:101620001941193908D121464E2002F02DFC2946D6
:101630004F2002F029FC07E02146202002F024FC84
:101640002946212002F020FC70BD00000800001097
:101650002DE9F05F0646884691461D46E82E02DCDD
:10166000B8F5987F01DDBDE8F09F3146502002F0CB
:101670000BFCAB4605EBDB704010401E304481B2E2
:10168000512002F001FC4146522002F0FDFB08EB24
:101690000500401E81B2532002F0F6FB4146304661
:1016A000FFF7B2FF00F02CF9A9F1200000F0FF09CC
:1016B0000A98002834D100242FE00C2D07D109EB23
:1016C0004900354901EB800010F804A004E03348DC
:1016D00000EB091010F804A0002717E01AF0010F22
:1016E00008D008EB040291B2F0192D4A1288FFF7D6
:1016F000C3FC07E008EB040291B2F019294A1288F2
:10170000FFF7BAFC4FEA6A0A781CC7B205EBD5713D
:10171000B7EB610FE2DB601CC4B2AC42CDDB28E06A
:10172000002424E00C2D07D109EB49001A4901EBF4
:10173000800010F804A004E0184800EB091010F82D
:1017400004A000270CE01AF0010F05D008EB0402FA
:1017500091B2F019FFF772FC4FEA6A0A781CC7B21F
:1017600005EBD571B7EB610FEDDB601CC4B2AC4289
:10177000D8DB0021502002F087FBEF21512002F03E
:1017800083FB0021522002F07FFB40F23F115320E7
:1017900002F07AFB00BF66E7B05300002458000057
:1017A00000000010020000102DE9FF4F81B0074635
:1017B00091461E460E9D4FF0000A002439E0301B72
:1017C000401EC1B20A2002F0ECF8B9FBF0F00A2189
:1017D000B0FBF1F201FB1208BAF1000F16D1701E36
:1017E000A04213DDB8F1000F0ED10120AB4605EB8E
:1017F000DB71491001FB04710090C8B22B46202216
:101800000299FFF725FF12E04FF0010A0020AB46D6
:1018100005EBDB71491001FB04710090C8B208F1BF
:101820003001CAB22B460299FFF712FF00BF601CBD
:10183000C4B2B442C3DB05B0BDE8F08FF8B50546CD
:101840000E4614461F46114807801BE0E82D03DDB5
:10185000002506F1100086B2B6F5987F06DD00205F
:10186000054606464FF6FF70FFF74AFB0020009042
:101870002278102331462846FFF7EAFE05F10800DA
:10188000C5B2641C20780028E0D1F8BD000000102B
:10189000F8B505460E4614461BE0E82D03DD00258D
:1018A00006F1100086B2B6F5987F06DD00200546E9
:1018B00006464FF6FF70FFF723FB002000902278CA
:1018C000102331462846FFF7C3FE05F10800C5B2D4
:1018D000641C20780028E0D1F8BD10B5002150200C
:1018E00002F0D2FAEF21512002F0CEFA002152206C
:1018F00002F0CAFA40F23F11532002F0C5FA10BDBF
:1019000010B5222002F06EFA10BD00F01F02012176
:10191000914042094FF0E02303EB8202C2F800112C
:101920007047000010B504461CB11520FFF7EDFF0D
:1019300008E0152001218140034A430942F82310A1
:1019400000BF00BF10BD000080E100E0F0B504461C
:101950000D46D020FEF7ACFE06469020FEF7A8FE0E
:101960000746642E01DB642F01DA0020F0BD2680DB
:101970002F800120FAE77FB504460D4602A903A88F
:10198000FFF7E4FF064616B9002004B070BD6946B3
:1019900001A8FFF7DBFF06460EB90020F5E7BDF80A
:1019A0000400BDF80C10884206DCBDF80C10BDF830
:1019B0000400323081420CDBBDF80C00BDF804108D
:1019C000884236DCBDF80410BDF80C00323081428C
:1019D0002FDABDF80000BDF80810884206DCBDF81B
:1019E0000810BDF80000323081420CDBBDF8080061
:1019F000BDF8001088421CDCBDF80010BDF80800DE
:101A00003230814215DABDF80C10BDF80420881878
:101A100000EBD071C1F34F012180BDF80810BDF873
:101A20000020881800EBD071C1F34F0129800120FC
:101A3000ABE70020A9E7000010B500240020FFF765
:101A400071FF00200C490872891D881EFFF793FF63
:101A500004E0601CC4B20A2000F087FE074800685A
:101A600008B9FA2CF5DD0120FFF75CFFFA2C01DB49
:101A7000002010BD0120FCE754000010B40A3823F8
:101A80003EB53449C8683449FEF792FB0546FEF777
:101A900037FC0446E0B28DF80400200A8DF80500FA
:101AA000200C8DF80600200E8DF80700082001ABF1
:101AB000002201210090A020FFF7B0F92549086914
:101AC0002549FEF775FB0546FEF71AFC0446E0B211
:101AD0008DF80400200A8DF80500200C8DF8060012
:101AE000200E8DF80700082001AB0246012100906E
:101AF000A020FFF793F91748B0F91440E0B28DF831
:101B00000400200A8DF80500082001AB10220121F5
:101B10000090A020FFF782F90E48B0F91640E0B21D
:101B20008DF80400200A8DF80500082001AB18226A
:101B300001210090A020FFF771F9FF208DF804002B
:101B4000012001AB202201460090A020FFF766F99A
:101B50003EBD00005400001020BCBE4C2020464971
:101B600008604648D0F8A00110F0200F05D000BF53
:101B70004148006810F0400FFAD003204049086047
:101B80004FF000003D49C1F8A8013E4908604FF000
:101B900001003D4908603D483D4908604FF0AA00FA
:101BA0003C4908604FF0550008604FF001003A4989
:101BB00008604FF0AA00374908604FF055002F49E0
:101BC000C1F88C0000BF3548006810F0806FFAD073
:101BD0000320314908604FF0AA002849C1F88C0061
:101BE0004FF055002B49086000BF2C48006810F0EA
:101BF000407FFAD023202A4908604FF0AA001F49ED
:101C0000C1F8AC004FF05500264908604FF00100C4
:101C1000254908604FF0AA00224908604FF055009E
:101C20001649C1F8AC0000BF2048006810F4806F6E
:101C3000FAD003201C4908604FF0AA000F49C1F8F0
:101C4000AC004FF055001749086000BF1748006806
:101C500010F4407FFAD01648164908604FF0000093
:101C60000649C1F8C80143F23A0008604FF000008D
:101C70001149086070470000A0C10F4000C00F402C
:101C800004C10F40ACC10F400CC10F406300050000
:101C900084C00F408CC00F4080C00F4088C00F40F0
:101CA000A4C00F40ACC00F40A0C00F40A8C00F4060
:101CB000DE872804C4C00F4008ED00E02DE9F04F96
:101CC00087B0002600BF4FF47840FE490880FE49E7
:101CD00008804FF6FF70FFF713F94FF47840F94989
:101CE00008804FF6FF70FFF70BF914210846FEF746
:101CF00005FE0020F5490872C86009E2F348007A41
:101D000001287DD1FFF798FE58B1F048808803A9DB
:101D100021F82600ED48C08801EB86014880701C40
:101D2000C6B2012E06D0022E0DD0032E15D0042EE1
:101D300008D11CE04FF6FF70FFF7E2F81421DC2019
:101D4000FEF7DCFDE2E14FF6FF70FFF7D9F84FF444
:101D500096711420FEF7D2FDD8E14FF6FF70FFF721
:101D6000CFF84FF49671DC20FEF7C8FDCEE1BDF848
:101D70000C10BDF81020881A01D4014600E0414241
:101D80000C46BDF80E20BDF81210501A01D40146C1
:101D900000E041420D4664436D436019FEF78CFA42
:101DA000CDE9000101F059FE0746FEF7C2FA1FFA1D
:101DB00080F9BDF81410BDF81820881A01D4014626
:101DC00000E041420C46BDF81620BDF81A10501A2A
:101DD00001D4014600E041420D4664436D43601961
:101DE000FEF76AFA074601F038FECDE90001FEF77A
:101DF000A0FA1FFA80FA5046FEF759FA074600E0AB
:101E000085E14846FEF753FA80463946FEF706FA62
:101E100002900298FEF7A6FA07464FF06632AC4BE6
:101E2000FEF7B4FA0ED30298FEF79CFA0746A94AC9
:101E3000A94BFEF7BFFA05D3B9F1000F02D0BAF1F2
:101E4000000F09D100264FF6FF70FFF759F8142153
:101E50000846FEF753FD5BE1BDF80C10BDF81420F9
:101E6000881A01D4014600E041420C46BDF80E201C
:101E7000BDF81610501A01D4014600E041420D464B
:101E800064436D436019FEF717FACDE9000101F0D4
:101E9000E4FD0746FEF74DFA1FFA80F9BDF8101071
:101EA000BDF81820881A01D4014600E041420C46D2
:101EB000BDF81220BDF81A10501A01D4014600E0F6
:101EC00041420D4664436D436019FEF7F5F9CDE9D3
:101ED000000101F0C2FD0746FEF72BFA1FFA80FA57
:101EE0005046FEF7E4F907464846FEF7E0F980461B
:101EF0003946FEF793F902900298FEF733FA074647
:101F00004FF06632724BFEF741FA08D30298FEF7A3
:101F100029FA07466F4A704BFEF74CFA09D20026A1
:101F20004FF6FF70FEF7ECFF14210846FEF7E6FCC3
:101F3000EEE0BDF81010BDF81420881A01D4014657
:101F400000E041420C46BDF81220BDF81610501AB0
:101F500001D4014600E041420D4664436D436019DF
:101F6000FEF7AAF9074601F078FDCDE90001FEF77A
:101F7000E0F91FFA80F9BDF80C10BDF81820881A96
:101F800001D4014600E041420C46BDF80E20BDF8E8
:101F90001A10501A01D4014600E041420D46644334
:101FA0006D436019FEF788F9074601F056FDCDE94B
:101FB0000001FEF7BEF91FFA80FA5046FEF777F9E6
:101FC00007464846FEF773F980463946FEF726F97C
:101FD00002900298FEF7C6F907464FF066323C4B76
:101FE000FEF7D4F908D30298FEF7BCF90746394A40
:101FF000394BFEF7DFF909D200264FF6FF70FEF7E6
:102000007FFF14210846FEF779FC81E0BDF810102F
:10201000BDF80C20881AFEF741F9074639462F48CB
:10202000FEF7FCF82949C860BDF81010BDF80C2077
:102030008818FEF733F901902448C1680198FEF72B
:10204000B7F883462649FEF7B0F880464FF0804146
:10205000FEF7E4F80746FEF753F900B21B49888201
:10206000BDF81610BDF80E20881AFEF717F90746BE
:1020700039461C48FEF7D2F814490861BDF816101D
:10208000BDF80E208818FEF709F901900F48016984
:102090000198FEF78DF883461349FEF786F88046CF
:1020A0004FF08041FEF7BAF80746FEF729F900B273
:1020B0000649C8821F20034908804FF6FF70FEF7CB
:1020C0001FFF13E000000010020000105400001079
:1020D0006666EE3FCDCCCCCCCCCCF03F0000484384
:1020E0000000704300008C430000A04309A26E2151
:1020F0002320FFF7CDFB4FF47A7000F036FB4FF64C
:10210000FF70FEF7FDFE07B0BDE8F08F00BF00BF17
:10211000F4E50000546F7563682053637265656E63
:102120002041646A757374204F4B210010B5144828
:10213000006840F43070124908600846006C08647A
:102140001049881EFFF702FCFEF71EFC4FF6FF70D9
:10215000FEF7D6FE0120FEF7C5FD08B900BFFEE779
:10216000FEF72CFC00B110BD4FF6FF70FEF7C8FE65
:10217000FFF7A4FDFFF784FCFEF720FC00BFF2E7A9
:1021800000C009205A0000102DE9F043064603253F
:1021900000274FF000082548006840F01000234950
:1021A00008600846006840F0400008602048006869
:1021B000C0F38119B9F1000F09D0B9F1010F0AD0AC
:1021C000B9F1020F0AD0B9F1030F0BD000BF1948C3
:1021D000006884080AE01748046807E015480068AA
:1021E000440803E013480068C40800BF00BF002093
:1021F0001149087045F0800040EA070040EA0800F5
:102200000E49087345EA070040EA080008734FF0DA
:1022100003004860324621464FF0000001F0ECFC1C
:10222000072006490872BDE8F083000000C00240A4
:10223000A8C10F404C00001028C0004000C0004062
:10224000014600BF0448007D10F0200FFAD0C8B24C
:10225000014A10707047000000C000402DE9F043B3
:102260000646032500274FF000082948006840F47F
:102270008010274908600846006840F48000086024
:1022800024480068C0F30149B9F1000F09D0B9F141
:10229000010F0AD0B9F1020F0AD0B9F1030F0BD028
:1022A00000BF1D48006884080AE01B48046807E076
:1022B00019480068440803E017480068C40800BFD4
:1022C00000BF1648006840F080701549C1F8C4008E
:1022D0004FF000001349087045F0800040EA070005
:1022E00040EA08001049087345EA070040EA080080
:1022F00008734FF003004860324621464FF0020059
:1023000001F0F2FC072008490872BDE8F0830000E4
:1023100000C00240A8C10F404C000010C4C00F40D4
:1023200000C00F4028800940008009400FB4054BD1
:1023300010B503A9044A029800F01CF810BC5DF81F
:1023400014FB00008D2700004000001002E008C8C8
:10235000121F08C1002AFAD17047002001E001C114
:10236000121F002AFBD17047014908607047000026
:10237000500000102DE9FF4F8BB09A460F460546DE
:102380000026C9E0252837D100246D1C6649A146E6
:1023900001222B78203B02FA03F0084202D00443CA
:1023A0006D1CF6E728782E2817D115F8010F44F098
:1023B00004042A280ED06FF02F022878A0F13001F3
:1023C00009290AD809EB890102EB410100EB010957
:1023D0006D1CF2E757F8049B6D1C287869283FD0E4
:1023E00006DC002871D063280CD0642804D137E0C3
:1023F000732811D075284ED052460D99904706F19A
:10240000010688E017F8040B8DF8000000208DF815
:102410000100E846012003E057F8048B4FF0FF303D
:1024200061074FF0000401D40AE0641C4C450DDA4A
:102430008442FADB18F804100029F6D106E0641C87
:102440008442FCDB18F804100029F8D1264404E08B
:1024500018F8010B52460D999047641EF8D25AE0C5
:1024600001CF4FF00A0B002804DAC0F100004FF052
:102470002D0102E0210504D52B218DF82410012126
:1024800003E0E10705D02021F7E70DF120080891CE
:102490000CE00021F9E701CF4FF00A0BF9E75946AC
:1024A000FDF79CFF01F1300208F8012D0028F6D15C
:1024B000ADEB080000F1200B600701D44FF00109DB
:1024C000D94503DDA9EB0B0001E029E0002081469E
:1024D000002406E009A85246005D0D999047761C3D
:1024E000641C08988442F5DB04E0302052460D99C4
:1024F0009047761CB9F10001A9F10109F5DC05E06E
:1025000018F8010B52460D999047761CBBF100015B
:10251000ABF1010BF4DC6D1C287800287FF432AF9E
:102520000FB03046BDE8F08F09280100F8B5054628
:102530007648008800280EDD7448008819280ADAD9
:1025400072484088142806DD704840882D2802DA39
:102550001F206F4908806D4800881B280FDD6B48DD
:10256000008834280BDA69484088142807DD67485A
:1025700040882D2803DA4FF4784065490880634885
:10258000008836280EDD614800884F280ADA5F4847
:102590004088142806DD5D4840882D2802DA002096
:1025A0005B4908805948008851280FDD574800884A
:1025B0006A280BDA55484088142807DD53484088BC
:1025C0002D2803DA4FF4FC60514908804F480088F9
:1025D000B42819DD4D480088F02815DA4B484088AA
:1025E000142811DD494840882D280DDA792001236F
:1025F000C722EE2100904FF6FF70FEF7A1FC0020ED
:10260000444908704449086040480088B4287BDD8C
:102610003E480088F02877DA3C4840883C2873DD43
:102620003A48408850286FDA3B48006800286BDD44
:10263000002D68D13948006890B937483849026898
:10264000384800F099FB0646314637A0FFF76EFE8A
:102650001020012332463C2100905020FFF7A4F8BF
:102660002E480068012804D0022816D003283CD147
:1026700027E029482A4902682A4800F07DFB0646DF
:10268000314629A0FFF752FE1020012332463C219B
:1026900000905020FFF788F827E01F482049026883
:1026A000204800F0D5F80446214620A0FFF73EFE62
:1026B0000020224610233C2100905020FEF7C8FF46
:1026C00013E0154816490268164800F0EBFC044672
:1026D000214616A0FFF72AFE0020224610233C21A7
:1026E00000905020FEF7B4FF00BF00BF00200A4951
:1026F000086079200123C722EE2100904FF6FF7079
:10270000FEF71EFC012500BFF8BD000054000010BC
:1027100000000010340000102C00001030000010E9
:10272000AC0300108C0000100A2564000A52657387
:10273000756C743A25630000800400BF0100A0F1AD
:102740000100FBD1704710B500210BE0002205E02D
:10275000002300E05B1C642BFCD3521CB2F57A7F93
:10276000F6D3491C8142F1D310BD00B5034602E007
:10277000F52000F005F81800A3F10103F8D100BD21
:1027800000BF0100A0F10100FBD1704770B5044605
:102790000D46204601F05AF970BD2DE9F047054677
:1027A0000E4691461F464FF000082C4608E04A4668
:1027B0002146384600F092FF08B108F10108641C78
:1027C000B442F4DB4046BDE8F0872DE9F041044611
:1027D0000D462946204601F0D4F8064629462046F3
:1027E00001F0BFF80746A7EB06084046BDE8F081B8
:1027F0002DE9FE4F06460F4690469946DDF830B06B
:102800000020054634460DE05A462146404600F079
:1028100065FF28B159F8240001A941F825006D1C75
:10282000601C0446BC42EFDB012D0FDDDDE9010138
:10283000B0EB010A01D4514601E0CAF1000108469B
:10284000FDF72CFD00900098BDE8FE8F00BFFBE770
:102850002DE9F74F8EB002200D901098801E0C903D
:10286000FC49109808600C990E9801F08AF80990BC
:102870000C990E9801F075F808900C990F9801F0DA
:1028800080F807460C990F9801F06BF80790DDE986
:102890000801401A0B900798C41B0B9800EBD071ED
:1028A0004A10099902EB010B204604EBD07107EBAB
:1028B00061010A915A46DDE90D030C99FFF76DFF9E
:1028C00006460F9B0A9ADDE90C10FFF766FF0546E6
:1028D0005946E1A00A9AFFF729FDE3A0DDE90C21A2
:1028E000FFF724FD2A463146E4A0FFF71FFD05202F
:1028F00094FBF0F10B98814203DD692011B0BDE833
:10290000F08F012E29D1012D27D1052094FBF0F164
:102910000B98814201DD6920F0E7DDF834900AE090
:1029200049460A9A0F9800F0D9FE10B10E9850F857
:10293000298009F101090C988145F1DB4146D5A0B8
:10294000FFF7F4FC5946D4A00A9AFFF7EFFCD845EC
:1029500001DD6A20D2E76C20D0E7012E48D1022D9C
:1029600046D104EB4400C11700EB917107EBA10ABB
:1029700052460F9BDDE90C10FFF70FFF0546CDF81F
:1029800000A0DDE90E32DDE90C10FFF731FF059004
:10299000012D01D17220B1E70B98FDF77FFC0146B4
:1029A00000900598FDF73AFC0190FDF7DBFC002252
:1029B000BB4BCDE90201FDF7FDFC12D22046E11729
:1029C00004EB917107EBA10A52460F9BDDE90C1055
:1029D000FFF7E3FE0546022D01DD6E208EE7752030
:1029E0008CE70498032801DD722087E7762085E7CD
:1029F000012E14D1032D12D16000072190FBF1F0BC
:102A000000EB070A52460F9BDDE90C10FFF7C5FEED
:102A10000546012D01DD6E2070E768206EE7012E6E
:102A20000AD1042D08D10F9801680A98814201DA71
:102A3000572063E74D2061E7012E03D1052D01D119
:102A40006D205BE7022E7BD1012D79D104EB440090
:102A5000C11700EB917107EBA10A52460F9BDDE90C
:102A60000C10FFF79AFE0546012D1FDD2046E117E9
:102A700004EB917107EBA10A52460F9BDDE90C10A4
:102A8000FFF78BFE0546CDF800A0DDE90E32DDE94B
:102A90000C1000F0EDFA8046012D05D1D84501DD7E
:102AA00064202BE7622029E7792027E72046E117F9
:102AB00004EB917107EBA10A52460F9BDDE90C1064
:102AC000FFF76BFE0546022D14DA0B98C11700EBD9
:102AD00091718A10099911440691DDE90D03069A56
:102AE0000C99FFF75AFE0646012E01DD632005E72B
:102AF000662003E704EB4400C11700EB917107EB7C
:102B0000A10A52460F9BDDE90C10FFF746FE054671
:102B1000DDF834900AE0524649460F9800F0DEFD99
:102B200010B10E9850F8298009F101090C988145DF
:102B3000F1DBD84502DA7020E0E601E07120DDE645
:102B4000022E50D1022D4ED104EB4400C11700EBF0
:102B5000917107EBA10A52460F9BDDE90C10FFF7BC
:102B60001CFE0546022D1BDA2046E11704EB91718D
:102B700007EBA10A52460F9BDDE90C10FFF70DFE93
:102B80000546CDF800A0DDE90E32DDE90C1000F0BD
:102B90006FFA8046D84501DA7020AFE67120ADE6C5
:102BA000012D01D16220A9E60A980090DDE90E32DC
:102BB000DDE90C10FFF71CFE05900B98FDF76EFB8E
:102BC000014600900598FDF729FB0190FDF7CAFB2F
:102BD0000022334BCDE90201FDF7ECFB01D26F205F
:102BE0008CE678208AE6022E61D1032D5FD1204643
:102BF000E11704EB917107EBA10A52460F9BDDE947
:102C00000C10FFF7CAFD0546012D0ED1CDF800A02E
:102C1000DDE90E32DDE90C1000F02AFA8046D845D5
:102C200001DD64206AE6622068E6032D3ED104EBF4
:102C30004400C11700EB917107EBA10A52460F9BAC
:102C4000DDE90C10FFF7A9FD0546032D2AD161200F
:102C500054E600003C0000100A6D583A25642C6DC3
:102C6000593A2564000000000A73746172743A25B1
:102C7000642C656E643A2564000000000A78436F96
:102C8000756E743A25642C79436F756E743A2564B9
:102C9000000000000A2564000A25642C2564000059
:102CA0000000E03F032D01D1782027E661E0022EED
:102CB00003D1042D01D1642020E6032E3FD1012D44
:102CC0003DD12046E11704EB917107EBA10A524672
:102CD0000F9BDDE90C10FFF760FD0546012D24DD9B
:102CE00004EB4400C11700EB917107EBA10A5246B7
:102CF0000F9BDDE90C10FFF750FD0546DDF8349021
:102D00000AE049460A9A0F9800F0E8FC10B10E98C4
:102D100050F8298009F101090C988145F1DBD8456B
:102D200001DD6720EAE57420E8E50C990E9850F87B
:102D30002100584501DD7A20E0E57320DEE5032E11
:102D40000BD1022D09D10C990E9850F8210058454D
:102D500001DD6520D2E57920D0E5032E03D1032DD6
:102D600001D16B20CAE5042E03D1022D01D16720C9
:102D7000C4E52020C2E500002DE9F74F8AB0824665
:102D80008B46B4490C980860022009900C98801E6C
:102D900008905046089900F0F4FD049050460899B8
:102DA00000F0DFFD03905846089900F0EAFD074661
:102DB0005846089900F0D5FD0290DDE90301401A5C
:102DC00007900298C41B079800EBD0714A10049931
:102DD00011440691204604EBD07107EB6101059187
:102DE0005346069ADDE90810FFF7D7FC06465B4616
:102DF000059ADDE90810FFF7D0FC05462A46314662
:102E000095A0FFF793FA012E0BD1012D09D10320D4
:102E100094FBF0F1079881427CDD01200DB0BDE804
:102E2000F08F012E03D1022D01D10420F6E7022EEE
:102E30002FD1012D2DD100252046E11704EB9171F2
:102E400007EBA1095B464A46DDE90810FFF7A5FC40
:102E50000546012D01DD0920E0E704EB4400C11720
:102E600000EB917107EBA1095B464A46DDE90810CA
:102E7000FFF793FC0546012D01DD0620CEE70898FB
:102E80005AF820100698814201DD0220C6E707208B
:102E9000C4E7022E16D1022D14D1002504EB440004
:102EA000C11700EB917107EBA1095B464A46DDE9CA
:102EB0000810FFF772FC0546012D01DD0020ADE78B
:102EC0000420ABE7032E70D1012DFCD10026002594
:102ED000A000052190FBF1F000EB07095B464A4694
:102EE000DDE90810FFF759FC0546012D15DD002529
:102EF00004EB4400052190FBF1F000EB07095B4671
:102F00004A46DDE90810FFF748FC0546012D02DDC1
:102F1000062083E79BE0052080E70025052094FB41
:102F2000F0F000EB07095B464A46DDE90810FFF7C1
:102F300034FC0546012D2FDD0026DDF824800DE050
:102F40005BF828100598814206DA41465046069AF9
:102F500000F0C4FB00B1761C08F101080898804518
:102F6000EEDB012E01DD092058E7079901EB410056
:102F7000C11700EB91718A100499114401915346D5
:102F8000019ADDE90810FFF708FC0646022E01DD74
:102F9000032043E7022041E72046E11704EB91714B
:102FA00007EBA109DDF824800BE015E04A46414615
:102FB000584600F093FB10B15AF82800009008F131
:102FC000010808988045F1DB06990098884201DAEB
:102FD000052023E7022021E7032E15D1022D13D16E
:102FE0000025A000052190FBF1F000EB07095B46EE
:102FF0004A46DDE90810FFF7D0FB0546012D01DD4B
:1030000006200BE7052009E7032E03D1032D01D18C
:10301000052003E7042E14D1012D12D12046E1171B
:1030200004EB917107EBA1095B464A46DDE9081004
:10303000FFF7B3FB0646012E01D10320EEE609207F
:10304000ECE6042E03DB022D01DB0820E6E600BFE0
:10305000E4E600003C0000100A78436F756E743A95
:1030600025642C79436F756E743A25640000000066
:103070002DE9F04705460E4617469846DDF82090A4
:103080002C460BE04A462146384600F027FB18B193
:1030900058F82400BDE8F087601C0446B442F1DB18
:1030A00000BFF7E72DE9F74F90B08246FD4912982F
:1030B000086002200E901298801E0D9050460D99C7
:1030C00000F05FFC099050460D9900F04AFC089012
:1030D0000D99119800F055FC07460D99119800F0D4
:1030E00040FC0790DDE90801A0EB01080798C41B2C
:1030F000404608EBD0714A10099911440C912046C2
:1031000004EBD07107EB61010B915346DDE90C2113
:103110000E98FFF742FB0646119B0B9ADDE90D1056
:10312000FFF73BFB05462A463146DFA0FFF7FEF8D6
:10313000012E77D1012D75D108EB4800C11700EBA6
:1031400091718A100999114406915346069ADDE956
:103150000D10FFF722FB0546012E03DD502013B0B2
:10316000BDE8F08F069800905246119BDDE90D10E6
:10317000FFF77EFF83460B998B4507DD0D985AF8C4
:1031800020100698814201DD4C20E8E740464FEAD6
:10319000E87108EB91718A1009991144069106981B
:1031A00000905246119BDDE90D10FFF761FF834649
:1031B0000B98834501DD4A20D1E72046E11704EB57
:1031C000917107EBA1094A46119BDDE90D10FFF74C
:1031D000E4FA0546012D01DD5920C0E704EB440067
:1031E000C11700EB917107EBA1095346CDF8009090
:1031F000119ADDE90D10FFF73BFF0490FDF74EF843
:10320000059040464FEAE87108EB91718A100999E0
:10321000114406910698834502DA46209FE701E0B3
:1032200054209CE7012E6AD1022D68D104EB4400A2
:10323000C11700EB917107EBA1094A46119BDDE92B
:103240000D10FFF7AAFA0546012D01D1592086E796
:103250000C9800905246119BDDE90D10FFF708FF16
:1032600083460798A0F11401594523DD2046E11754
:1032700004EB917107EBA1094046FDF70FF85346A7
:10328000CDF800900290119ADDE90D10FFF7B0FA29
:1032900001900299FCF7C2FF0390FDF763F8884A9A
:1032A000884BCDE90401FDF785F801D2482056E7A7
:1032B000412054E704EB4400C11700EB917107EB88
:1032C000A1094046FCF7EAFF5346CDF80090029072
:1032D000119ADDE90D10FFF78BFA01900299FCF7C6
:1032E0009DFF0390FDF73EF8754A764BCDE904014A
:1032F000FDF760F801D2552031E756202FE7012E67
:1033000003D1032D01D14E2029E7012E0AD1042D2E
:1033100008D1119801680B98814201DA57201EE705
:103320004D201CE7022E75D1012D73D12046E117E7
:1033300004EB917107EBA1094A46119BDDE90D10E1
:10334000FFF72BFA05464046FCF7A8FF05900D98BD
:103350005AF820100C98814259DD2046FCF79EFF58
:10336000014600900598FCF759FF0190FCF7FAFF21
:103370004FF03332544BCDE90201FDF71BF80CD26C
:10338000012D08D1DAF800100C98814201DA5A2098
:10339000E5E64320E3E64B20E1E608EB4800C117F1
:1033A00000EB91718A1009991144069106990091D8
:1033B0005246119BDDE90D10FFF71AFA05902046E1
:1033C000FCF76CFF014600900598FCF727FF019081
:1033D000FCF7C8FF4FF066323C4BCDE90201FCF729
:1033E000E9FF01D24920BAE604EB4400C11700EB23
:1033F000917107EBA1094A46119BDDE90D10FFF71A
:10340000CCF90546012D04D14620A8E602E0502063
:10341000A5E614E1022E6DD1022D6BD104EB440020
:10342000C11700EB917107EBA1094A46119BDDE939
:103430000D10FFF7B2F90546294625A0FEF776FFE5
:10344000022D01DA50208AE60D99119850F82110CA
:103450000B98814201DA4F2081E60D985AF820102E
:103460000C9881423CDA0C980A3800905246119B25
:10347000DDE90D10FFF7BCF905900B98FCF70EFF86
:10348000014600900598FCF7C9FE0190FCF76AFF21
:103490000B4A0C4BCDE90201FCF78CFF1ED24420F5
:1034A0005DE627E03C0000100A78436F756E743AC1
:1034B00025642C79436F756E743A25640000000012
:1034C0009A9999999999D93F3333E33F6666E63FD4
:1034D0000A79436F756E743A2564000058203EE601
:1034E0000D99119850F82100484501DD4B2036E632
:1034F000412034E6032E4BD1012D49D12046E1175E
:1035000004EB917107EBA1090E980A900BE04A4673
:103510000A99119800F0E2F810B10A985AF820B010
:103520000A98401C0A900D990A988842EFDB0C9883
:10353000834501DD5A2012E604EB4400C11700EB7D
:10354000917107EBA1094A46119BDDE90D10FFF7C8
:1035500024F90546012D01DD472000E60E980A906A
:103560000BE04A460A99119800F0B8F810B10A9891
:103570005AF820B00A98401C0A900D990A9888427F
:10358000EFDB0C98834501DD5320E8E54520E6E5B7
:10359000032E28D1022D26D108EB4800C11700EBDD
:1035A00091718A100999114406915346069ADDE9F2
:1035B0000D10FFF7F2F80646A000052190FBF1F090
:1035C00000EB07094A46119BDDE90D10FFF7E5F80E
:1035D0000546032E01DD4220C1E5022D01DD51200B
:1035E000BDE55220BBE5032E03D0042E03D1032DED
:1035F00001D15120B3E5042E03D1012D01D1422088
:10360000ADE5042E1BD1022D19D104EB4400C117E6
:1036100000EB917107EBA1094A46119BDDE90D1002
:10362000FFF7BBF80546022D07DD0D985AF820106C
:103630000C98814201DD512091E542208FE5202048
:103640008DE5000021480068C8283DDA1F48006861
:1036500038B31E480068401E1D4951F820001D491E
:103660000988884230D019480068401E1A4951F82C
:10367000200018494988884226D0164800881449F5
:10368000124A126841F822001248408812490F4A33
:10369000126841F822000D480068401C0B49086080
:1036A00012E00C4800880A49084A126841F82200D2
:1036B000084840880849054A126841F82200034832
:1036C0000068401C01490860704700002C00001091
:1036D0008C00001054000010AC0300102DE9F041E4
:1036E00004460D46164654F82500B04204DB681C1B
:1036F00054F82000B04208DB54F82500B0421CDA30
:10370000681C54F82000B04217DB54F82510681CE0
:1037100054F820000F1A0A4801682046FFF755F8B0
:10372000032190FBF1F1002F01DB384600E07842E5
:10373000814202DD0120BDE8F0810020FBE70000AE
:103740003C00001008B5FEF709FAFDF71DF9FDF77A
:10375000D7FC2D48006840F430702B4908600846BB
:10376000006C40F0FF00086428A232213C20FEF7E4
:103770008FF8FEF7DBFC1F2328A200210846FEF786
:103780005DF81922284801882848008800F086F84A
:103790001F2327A23C210020FEF750F84FF4784366
:1037A00025A24FF498715020FEF748F84FF4784363
:1037B00024A21921B420FEF741F84FF4784323A244
:1037C0003C21B420FEF73AF84FF4784040F23F1322
:1037D000EF22782100900020FDF76AFC1CA26421F2
:1037E0000020FEF755F84FF49670FEF7ACFF7920F5
:1037F0000123C722EE2100904FF6FF70FDF7A0FBDA
:1038000000F0F0F908BD000000C0092041646A75AD
:10381000737420546865204C4344000050656E204A
:10382000436F6C6F723A00002800001026000010F1
:10383000526573756C743A005772696E74204172E8
:1038400065610000436C6561720000004F4B000031
:103850004D6F64653A4E756D626572002DE9F843EF
:1038600005460E4617461C466019F02809DAA019CD
:10387000B0F5A07F05DA281900F0FF08301900F034
:10388000FF0905480780E8B24B464246314600979B
:10389000FDF70EFCBDE8F8830000001070B505468A
:1038A0000E46144623461F2231462846FFF7D6FF10
:1038B0002819801C85B223464FF4784231462846A9
:1038C000FFF7CCFF2819801C85B223460022314621
:1038D0002846FFF7C3FF2819801C85B223464FF402
:1038E000FC6231462846FFF7B9FF70BD10B50446AB
:1038F0000C48006C40F0FF000A4908644FF40010C7
:1039000088618010C861084644654FF48010886162
:10391000FCF7E2FB4FF480100249C86120124865B1
:10392000012010BD00C0092010B54FF6FF70FDF753
:10393000E7FA00200549088005A20021D820FDF7FC
:10394000A7FF1F200149088010BD000000000010E3
:103950005253540010B5FFF7F5FE00F0A5F8002013
:1039600010BD10B502460B460020022106E052F8B9
:103970002140844201DD52F82100491C9942F6DBC6
:1039800010BD10B502460B469068022106E052F8C1
:103990002140844201DA52F82100491C9942F6DBA9
:1039A00010BD10B50246012000E050430B00A1F10C
:1039B0000104E1B2F9D110BD10B500244FF40000AC
:1039C00016498861400088614000C86100BF084610
:1039D000006C20F0FF0008644FF40010C8618010F4
:1039E000C861322000F0F8F90C48406DC3B24FF4C2
:1039F00000200A498861322000F0EEF90748406D46
:103A000063F31F2003464FF400100449886100BF90
:103A10001C4600018861204610BD000000C009203E
:103A200070B5044600254FF480000749C861E0B234
:103A300000F0D8F9FFF7C0FF05464FF480000249B7
:103A40008861284670BD000000C0092000B503460B
:103A50001846FEF7F5FB184600BD2DE9F041064675
:103A60000F46FCF776FD04000D4618BF01202843E1
:103A700020F00040C0F17F6000F1E040C00F0FD0A7
:103A8000002E14BF01200020384320F00040C0F178
:103A90007F6000F1E040C00F04BF0120FEF764FC2E
:103AA00020462946BDE8F08108B5012400BF00BFCB
:103AB00078E03D480078012809D14FF6FF70FDF706
:103AC0001FFAFEF7FBF8FDF7DBFFFFF72DFF20469F
:103AD000FEF72CFD3548406D10F4006F3BD13448A3
:103AE0000068401C3249086008460068032801DD70
:103AF00001200860652001231022EE2100904FF67E
:103B0000FF70FDF71DFA2A480068012804D002283A
:103B100008D0032812D10BE026A264210020FDF773
:103B2000B7FE0BE026A264210020FDF7B1FE05E000
:103B300027A264210020FDF7ABFE00BF00BF792063
:103B40000123C722EE2100904FF6FF70FDF7F8F930
:103B50001420FEF7F8FDFDF7C3F91349087020485B
:103B6000007A01281BD100240020FDF7DBFEFCF7C2
:103B700001FE00201A4908720846408878280ADBAE
:103B800008460088002806DD0A4651881078FCF7B0
:103B900047FEFFF757FD0120FDF7C4FE02E01420A9
:103BA000FEF7D1FD85E700003600001000C00920B7
:103BB000300000104D6F64653A4E756D626572009D
:103BC0004D6F64653A4C6F776572436173650000B1
:103BD0004D6F64653A55706572436173650000000E
:103BE0005400001010B54FF4E130FEF737FB4FF4EE
:103BF000E130FEF7C9FA10BD2DE9F84F0E4600205E
:103C00000027844600234FF0010A8346CDF800B018
:103C100081460025DFF8C880360901212CE0002408
:103C200024E001FB06FB01EB040EBBFBFEFCBCFB2E
:103C3000F2F3BCFBF2FB02FB1BCBBBEB520F00D938
:103C40005B1C022B11D9B3F5803F0ED2BCFBF3F7FE
:103C5000974201D8D51B00E0BD1A454505D28A46DA
:103C600000949946A84605B902E0641C0F2CD8D9E7
:103C700000BF05B902E0491C0F29D0D900BF02EBF3
:103C8000420B4FF0640EBBFBFEFBC34525D9DFF8AA
:103C900054B09BF80CB04BF0800BDFF848E08EF886
:103CA0000CB04FEA192B8EF804B08EF80090F34652
:103CB0009BF80CB00BF07F0B8EF80CB04FF0F00BB4
:103CC0000BEA0A1BDDF800E00EF00F0E4BEA0E0BBC
:103CD000DFF810E08EF828B00120BDE8F88F000072
:103CE000A086010000C000402DE9F84F0E460020DC
:103CF0000027844600234FF0010A8346CDF800B028
:103D000081460025DFF8C880360901212CE0002417
:103D100024E001FB06FB01EB040EBBFBFEFCBCFB3D
:103D2000F2F3BCFBF2FB02FB1BCBBBEB520F00D947
:103D30005B1C022B11D9B3F5803F0ED2BCFBF3F70D
:103D4000974201D8D51B00E0BD1A454505D28A46E9
:103D500000949946A84605B902E0641C0F2CD8D9F6
:103D600000BF05B902E0491C0F29D0D900BF02EB02
:103D7000420B4FF0640EBBFBFEFBC34525D9DFF8B9
:103D800054B09BF80CB04BF0800BDFF848E08EF895
:103D90000CB04FEA192B8EF804B08EF80090F34661
:103DA0009BF80CB00BF07F0B8EF80CB04FF0F00BC3
:103DB0000BEA0A1BDDF800E00EF00F0E4BEA0E0BCB
:103DC000DFF810E08EF828B00120BDE8F88F000081
:103DD000A08601000080094000BF0100A0F10100A1
:103DE000FBD1704710B504464FF400000849C86184
:103DF000800088612046FFF779FD4FF0807004490C
:103E0000C861FCF769F94FF080700149886110BD05
:103E100000C0092010B504464FF40000084988612D
:103E2000800088612046FFF761FD4FF080700449F3
:103E3000C861FCF751F94FF080700149886110BDED
:103E400000C0092010B504462046FFF74FFD4FF093
:103E500080700449C861FCF73FF94FF08070014958
:103E6000886110BD00C009204FF40000014988613D
:103E70007047000000C009204FF4800001498861AC
:103E80007047000000C0092070B505460C464FF48D
:103E900080000649C8612846FFF7A4FF2046FFF7C7
:103EA000B9FF4FF480000149886170BD00C009204E
:103EB0000000000000000000000000000000000002
:103EC00000000000000000000000000000000000F2
:103ED00000000000000000000000000000000000E2
:103EE000000080018001800180018001800180014B
:103EF00080018001800180018001800100000000BC
:103F000080018001000000000000000000000000AF
:103F100000000000CC00CC00CC00CC00CC00CC00D9
:103F20000000000000000000000000000000000091
:103F30000000000000000000000000000000000081
:103F4000000000000000000000000000600C600C99
:103F5000600C30063006FE1FFE1F300638071803BF
:103F6000FE1FFE1F180318038C018C018C0100003A
:103F700000008000E003F80F9C0E8C1C8C188C0055
:103F80009800F801E007800E801C8C188C189C1893
:103F9000B80CF00FE003800080000000000000007B
:103FA0000000000000000E181B0C110C1106110679
:103FB000110311039B018E01C038C06C6044604442
:103FC000304430441844186C0C38000000000000E5
:103FD0000000E001F0033807180618063003F0016E
:103FE000F000F8009C310E33061E061C061C063F2E
:103FF000FC73F02100000000000000000000000041
:10400000000000000C000C000C000C000C000C0068
:1040100000000000000000000000000000000000A0
:104020000000000000000000000000000000000090
:104030000000000200038001C000C00060006000BA
:1040400030003000300030003000300030003000F0
:1040500060006000C000C00080010003000200009A
:10406000000020006000C000800180010003000308
:104070000006000600060006000600060006000610
:104080000003000380018001C000600020000000E8
:10409000000000000000000000000000C000C000A0
:1040A000D806F807E00130033807000000000000E0
:1040B0000000000000000000000000000000000000
:1040C00000000000000000000000000080018001EE
:1040D000800180018001FC3FFC3F80018001800164
:1040E00080018001000000000000000000000000CE
:1040F00000000000000000000000000000000000C0
:1041000000000000000000000000000000000000AF
:10411000000080018001000100018000000000001B
:10412000000000000000000000000000000000008F
:104130000000000000000000E007E00700000000B1
:10414000000000000000000000000000000000006F
:10415000000000000000000000000000000000005F
:10416000000000000000000000000000000000004F
:104170000000C000C00000000000000000000000BF
:104180000000000C000C00060006000600030003FF
:1041900000038003800180018001C000C000C000D6
:1041A000600060000000000000000000000000004F
:1041B0000000E003F007380E180C0C180C180C184F
:1041C0000C180C180C180C180C180C18180C380EAD
:1041D000F007E00300000000000000000000000005
:1041E000000000018001C001F001980188018001F8
:1041F00080018001800180018001800180018001B7
:1042000080018001000000000000000000000000AC
:104210000000E003F80F180C0C180C180018001818
:10422000000C000600038001C00060003000180090
:10423000FC1FFC1F00000000000000000000000048
:104240000000E001F807180E0C0C0C0C000C000626
:10425000C003C007000C001800180C180C18180C2C
:10426000F807E0030000000000000000000000006C
:104270000000000C000E000F000F800DC00C600C41
:10428000600C300C180C0C0CFC3FFC3F000C000CBC
:10429000000C000C00000000000000000000000006
:1042A0000000F80FF80F180018000C00EC03FC07D2
:1042B0001C0E001C0018001800180C181C0C180EFE
:1042C000F807E0030000000000000000000000000C
:1042D0000000C007F00F381C181818000C00CC03A1
:1042E000EC0F3C0E1C1C0C180C180C18181C380E6B
:1042F000F007E003000000000000000000000000E4
:104300000000FC1FFC1F000C0006000600038003D9
:104310008001C001C000E00060006000700030005B
:10432000300030000000000000000000000000002D
:104330000000E003F007380E180C180C180C3806B3
:10434000F007F007180C0C180C180C180C18380C87
:10435000F80FE00300000000000000000000000073
:104360000000E003F007380E1C0C0C180C180C1899
:104370001C1C381EF81BE0190018000C000C1C0E49
:10438000F807F0010000000000000000000000003D
:10439000000000000000000000000000800180011B
:1043A000000000000000000000000000000000000D
:1043B00080018001000000000000000000000000FB
:1043C00000000000000000000000000080018001EB
:1043D00000000000000000000000000000000000DD
:1043E0008001800100010001800000000000000049
:1043F00000000000000000000000000000000000BD
:104400000010001C800FE003F8001800F800E00323
:10441000800F001C001000000000000000000000E1
:10442000000000000000000000000000000000008C
:10443000F81F000000000000F81F0000000000004E
:10444000000000000000000000000000000000006C
:10445000000000000000000000000000000000005C
:1044600008003800F001C007001F0018001FC00737
:10447000F00138000800000000000000000000000B
:104480000000E003F80F180C0C180C180018000CB2
:10449000000600038001C000C000C0000000000052
:1044A000C000C0000000000000000000000000008C
:1044B00000000000E00718180420C229224A114415
:1044C00009440944094409221113E20C0240042062
:1044D0001818E007000000000000000000000000C5
:1044E000000080038003C006C006C006600C600C9C
:1044F000301830183018F83FF83F1C700C600C6012
:1045000006C006C00000000000000000000000001F
:104510000000FC03FC0F0C0C0C180C180C180C0CF5
:10452000FC07FC0F0C180C300C300C300C300C1845
:10453000FC1FFC070000000000000000000000005D
:104540000000C007F01F38381C300C7006600600F1
:104550000600060006000600060006600C701C300F
:10456000F01FE00700000000000000000000000055
:104570000000FE03FE0F060E061806180630063071
:104580000630063006300630063006180618060ECD
:10459000FE0FFE030000000000000000000000000D
:1045A0000000FC3FFC3F0C000C000C000C000C0059
:1045B000FC1FFC1F0C000C000C000C000C000C007D
:1045C000FC3FFC3F00000000000000000000000075
:1045D0000000F83FF83F18001800180018001800F5
:1045E000F81FF81F1800180018001800180018000D
:1045F000180018000000000000000000000000008B
:104600000000E00FF83F3C780E6006E007C00300B2
:10461000030003FE03FE03C007C006C00EC03CF04B
:10462000F83FE00F00000000000000000000000064
:1046300000000C300C300C300C300C300C300C30D6
:10464000FC3FFC3F0C300C300C300C300C300C308C
:104650000C300C30000000000000000000000000E2
:1046600000008001800180018001800180018001C3
:104670008001800180018001800180018001800132
:104680008001800100000000000000000000000028
:1046900000000006000600060006000600060006F0
:1046A0000006000600060006000618061806380771
:1046B000F003E00100000000000000000000000026
:1046C000000006300618060C060606038601C60022
:1046D00066007600DE008E0106030606060C06184C
:1046E000063006600000000000000000000000002E
:1046F0000000180018001800180018001800180012
:1047000018001800180018001800180018001800E9
:10471000F81FF81F0000000000000000000000006B
:1047200000000EE01EF01EF01EF036D836D836D847
:1047300036D866CC66CC66CCC6C6C6C6C6C6C6C6A5
:1047400086C386C3000000000000000000000000D7
:1047500000000C301C303C303C306C306C30CC30C5
:10476000CC308C310C330C330C360C360C3C0C3CFE
:104770000C380C30000000000000000000000000B9
:104780000000E007F81F1C380E70066003C003C06D
:1047900003C003C003C003C003C006600E701C3812
:1047A000F81FE0070000000000000000000000000B
:1047B0000000FC0FFC1F0C380C300C300C300C309F
:1047C0000C18FC1FFC070C000C000C000C000C006B
:1047D0000C000C00000000000000000000000000C1
:1047E0000000E007F81F1C380E70066003E003C0ED
:1047F00003C003C003C003C007E006630E3F1C3CB8
:10480000F83FE0F700C000000000000000000000DA
:104810000000FE0FFE1F0638063006300630063850
:10482000FE1FFE0706030606060C061806180630CD
:1048300006300660000000000000000000000000DC
:104840000000E003F80F1C0C0C180C180C001C00E6
:10485000F803E00F001E0038063006300E301C1C36
:10486000F80FE0070000000000000000000000005A
:104870000000FE7FFE7F80018001800180018001B9
:104880008001800180018001800180018001800120
:104890008001800100000000000000000000000016
:1048A00000000C300C300C300C300C300C300C3064
:1048B0000C300C300C300C300C300C300C30181824
:1048C000F81FE007000000000000000000000000EA
:1048D000000003600630063006300C180C180C1867
:1048E000180C180C380E3006300670076003600391
:1048F000C001C00100000000000000000000000036
:1049000000000360C361C361C3616633663366330D
:104910006633663366336C1B6C1B6C1B2C1A3C1E97
:10492000380E380E000000000000000000000000FB
:1049300000000FE00C7018303018700C600EC007CB
:1049400080038003C003E006700C301C18180C3084
:104950000E6007E000000000000000000000000002
:10496000000003C006600C301C383818300C60069C
:10497000E007C00380018001800180018001800187
:104980008001800100000000000000000000000025
:104990000000FC7FFC7F006000300018000C000667
:1049A00000038001C0006000300018000C00060009
:1049B000FE7FFE7F000000000000000000000000FD
:1049C0000000E003E0036000600060006000600041
:1049D00060006000600060006000600060006000D7
:1049E00060006000600060006000E003E003000021
:1049F000000030003000600060006000C000C000B7
:104A0000C000C00180018001800100030003000399
:104A1000000600060000000000000000000000008A
:104A20000000E003E00300030003000300030003B1
:104A3000000300030003000300030003000300035E
:104A400000030003000300030003E003E003000091
:104A500000000000C001C001600360036003300675
:104A60003006180C180C00000000000000000000C8
:104A70000000000000000000000000000000000036
:104A80000000000000000000000000000000000026
:104A90000000000000000000000000000000000016
:104AA0000000FFFFFFFF000000000000000000000A
:104AB00000000C000C000C000C000C000C000000AE
:104AC00000000000000000000000000000000000E6
:104AD00000000000000000000000000000000000D6
:104AE000000000000000000000000000F003F807D4
:104AF0001C0C0C0C000FF00FF80C0C0C0C0C1C0F09
:104B0000F80FF01800000000000000000000000096
:104B1000000018001800180018001800D803F80F3B
:104B2000380C181818181818181818181818380CDD
:104B3000F80FD80300000000000000000000000093
:104B4000000000000000000000000000C003F007AB
:104B5000300E180C1800180018001800180C300E31
:104B6000F007C0030000000000000000000000008B
:104B7000000000180018001800180018C01BF01FD3
:104B8000301C181818181818181818181818301C6D
:104B9000F01FC01B0000000000000000000000002B
:104BA000000000000000000000000000C003F00F43
:104BB000300C1818F81FF81F180018003818301C8F
:104BC000F00FC0070000000000000000000000001F
:104BD0000000800FC00FC000C000C000F007F00749
:104BE000C000C000C000C000C000C000C000C000C5
:104BF000C000C00000000000000000000000000035
:104C0000000000000000000000000000E00DF80FB0
:104C1000180E0C0C0C0C0C0C0C0C0C0C0C0C180EB8
:104C2000F80FE00D000C0C0C1C06F807F00100005A
:104C3000000018001800180018001800D807F80F16
:104C4000381C1818181818181818181818181818C0
:104C500018181818000000000000000000000000F4
:104C60000000C000C000000000000000C000C00044
:104C7000C000C000C000C000C000C000C000C00034
:104C8000C000C000000000000000000000000000A4
:104C90000000C000C000000000000000C000C00014
:104CA000C000C000C000C000C000C000C000C00004
:104CB000C000C000C000C000C000F80078000000C4
:104CC00000000C000C000C000C000C000C0C0C067E
:104CD0000C038C01CC006C00FC009C018C030C03C9
:104CE0000C060C0C0000000000000000000000009A
:104CF0000000C000C000C000C000C000C000C00074
:104D0000C000C000C000C000C000C000C000C000A3
:104D1000C000C00000000000000000000000000013
:104D20000000000000000000000000007C3CFF7E4E
:104D3000C7E383C183C183C183C183C183C183C1ED
:104D400083C183C1000000000000000000000000DB
:104D50000000000000000000000000009807F80FAD
:104D6000381C18181818181818181818181818189F
:104D700018181818000000000000000000000000D3
:104D8000000000000000000000000000C003F00F61
:104D9000300C181818181818181818181818300C7B
:104DA000F00FC00300000000000000000000000041
:104DB000000000000000000000000000D803F80F11
:104DC000380C181818181818181818181818380C3B
:104DD000F80FD80318001800180018001800000079
:104DE000000000000000000000000000C01BF01FD9
:104DF000301C181818181818181818181818301CFB
:104E0000F01FC01B00180018001800180018000040
:104E1000000000000000000000000000B007F003E8
:104E200070003000300030003000300030003000C2
:104E30003000300000000000000000000000000012
:104E4000000000000000000000000000E003F0038C
:104E5000380E180C3800F003C007000C180C380E80
:104E6000F007E00300000000000000000000000068
:104E7000000000008000C000C000C000F007F00784
:104E8000C000C000C000C000C000C000C000C00022
:104E9000C0078007000000000000000000000000C4
:104EA00000000000000000000000000018181818A2
:104EB0001818181818181818181818181818381C4E
:104EC000F01FE019000000000000000000000000DA
:104ED0000000000000000000000000000C18180C8A
:104EE000180C180C300630063006600360036003AF
:104EF000C001C00100000000000000000000000030
:104F0000000000000000000000000000C141C1419D
:104F1000C3616363636363633636363636361C1C9F
:104F20001C1C1C1C00000000000000000000000011
:104F30000000000000000000000000001C38381CC9
:104F4000300C6006C003C003C003C0036006300C11
:104F5000381C1C38000000000000000000000000A9
:104F600000000000000000000000000018303018B1
:104F700030187018600C600CE00CC006C00680038E
:104F80008003800380018001C001F00070000000F8
:104F9000000000000000000000000000FC1FFC1FDB
:104FA000000C000600038001C00060003000180003
:104FB000FC1FFC1F000000000000000000000000BB
:104FC000000000038001C000C000C000C000C0009D
:104FD000C00060006000300060004000C000C00001
:104FE000C000C000C000C00080010003000000003D
:104FF000000080018001800180018001800180012A
:105000008001800180018001800180018001800198
:105010008001800180018001800180018001000009
:1050200000006000C000C00180018001800180019B
:1050300080010003000300060003000180018001DD
:105040008001800180018001C0006000000000003C
:105050000000000000000000000000000000000050
:10506000F010F81F080F0000000000000000000012
:105070000000000000000000000000000000000030
:105080000000000000000000000000000000000020
:105090000000000000000000000000000000000010
:1050A0000000000000000000000000000000000000
:1050B00000000000000000000000C003300C0810D9
:1050C000042004200240024002400240024004202A
:1050D00004200810300CC003000000000000000095
:1050E00000000000000000000000C003F00FF81FE7
:1050F000FC3FFC3FFE7FFE7FFE7FFE7FFE7FFC3F8E
:10510000FC3FF81FF00FC00300000000000000008B
:105110000000000000000000000000000000E007A8
:10512000F00F181818181818181818181818F00F61
:10513000E007000000000000000000000000000088
:105140000000000000000000000000000000E00778
:10515000F00FF81FF81FF81FF81FF81FF81FF00FC7
:10516000E007000000000000000000000000000058
:10517000000000000000000000000000000000002F
:1051800000000000000000008001C0036006300C39
:1051900018181818F81FF81F000000000000000081
:1051A00000000000000000000000000000000000FF
:1051B00000000000000000008001C003E007F00FC5
:1051C000F81FF81FF81FF81F000000000000000083
:1051D0000000000000000000F81FF81F1818181841
:1051E000300C6006C00380010000000000000000D9
:1051F00000000000000000000000000000000000AF
:105200000000000000000000F81FF81FF81FF81F42
:10521000F00FE007C0038001000000000000000064
:10522000000000000000000000000000000000007E
:105230000000000000000000000000000000E0018D
:10524000F00198018C01860186018C019801F00122
:10525000E00100000000000000000000000000006D
:105260000000000000000000000000000000E0015D
:10527000F001F801FC01FE01FE01FC01F801F00162
:10528000E00100000000000000000000000000003D
:105290000000000000000000000000000000800787
:1052A000800F801980318061806180318019800F8A
:1052B0008007000000000000000000000000000067
:1052C0000000000000000000000000000000800757
:1052D000800F801F803F807F807F803F801F800FF6
:1052E0008007000000000000000000000000000037
:1052F0000000C00120022002400130060808080812
:1053000008080808080808080808200220022002E7
:10531000200220022002200220022002200200009F
:105320000000C001E003E003C001F007D80DD80D74
:10533000D80DD80DD80DD80DD80D600360036003CB
:1053400060036003600360036003600360030000A8
:105350000000C001200220024001300608080808B1
:10536000080804100220022040012002200210043C
:10537000080808080410041004200440000000007D
:105380000000C001E003E003C001F007D80DD80D14
:10539000D80DCC19C631C261C0016003600370062C
:1053A000380C180C0C180C180C300C6000000000A5
:1053B00000000000000000000000000000000404E5
:1053C000040404040004000000140A0A00000000A1
:1053D00000000000000014143F140A3F0A0A0000F5
:1053E00000041E1505060C14150F0400000012150C
:1053F0000D0A142C2A1200000000040A0A1E1515BA
:105400000936000000020201000000000000000058
:1054100000201008080808080810200000020408EE
:10542000080808080804020000000004150E0E1504
:105430000400000000000404041F04040400000031
:105440000000000000000000000202010000000057
:10545000001F00000000000000000000000000002D
:105460000002000000100808080404020202010003
:1054700000000E1111111111110E000000000406A0
:1054800004040404040E000000000E1111080402BC
:10549000011F000000000E11100C1010110E000072
:1054A0000000080C0A0A091E0818000000001F016D
:1054B000010F1010110E000000000E09010F111154
:1054C000110E000000001F09080404040404000079
:1054D00000000E11110E1111110E000000000E112E
:1054E00011111E10120E0000000000000400000048
:1054F000000400000000000000040000000404009C
:105500000020100804020408102000000000000021
:105510001F00001F000000000002040810201008F7
:105520000402000000000E11110804040004000031
:1055300000000E111915151D011E000000000404C5
:105540000C0A0A1E1233000000000F12120E121273
:10555000120F000000001E1101010101110E0000D8
:1055600000000F1212121212120F000000001F1280
:105570000A0E0A02121F000000001F120A0E0A0281
:105580000207000000001C1201013911120C00007A
:1055900000003312121E12121233000000001F040A
:1055A00004040404041F000000003E080808080862
:1055B00008090700000037120A060A0A123700001D
:1055C0000000070202020202223F000000001B1B33
:1055D0001B1B15151515000000003B1216161A1A94
:1055E0001217000000000E1111111111110E000010
:1055F00000000F12120E02020207000000000E113E
:1056000011111117190E180000000F12120E0A12B4
:105610001237000000001E1101060810110F0000D3
:1056200000001F1504040404040E000000003312DF
:1056300012121212120C000000003312120A0A0C8D
:105640000404000000001515150E0A0A0A0A0000DD
:1056500000001B0A0A04040A0A1B000000001B0ABF
:105660000A040404040E000000001F0908040402D8
:10567000121F0000001C04040404040404041C00A1
:10568000000202020404080808100000000E0808C6
:105690000808080808080E0000040A0000000000BE
:1056A0000000000000000000000000000000003FBB
:1056B00000040000000000000000000000000000E6
:1056C000000C121C123C000000000302020E121219
:1056D000120E000000000000001C1202021C00005C
:1056E00000001810101C1212123C000000000000F4
:1056F000000C121E021C000000003804041E0404EA
:10570000041E000000000000003C120C021E221CBF
:1057100000000302020E1212123700000000040003
:1057200000060404040E000000000800000C080835
:105730000808080700000302023A0A0E12370000A8
:105740000000070404040404041F0000000000001B
:10575000000F15151515000000000000000F1212B3
:105760001237000000000000000C1212120C0000A2
:1057700000000000000F1212120E020700000000CD
:10578000001C1212121C103800000000001B060240
:105790000207000000000000001E020C101E0000A6
:1057A00000000004040E04040418000000000000BF
:1057B000001B1212123C0000000000000037120A09
:1057C0000C040000000000000015150E0A0A00007D
:1057D00000000000001B0A040A1B0000000000007B
:1057E0000037120A0C04040300000000001E080425
:1057F000041E00000018080808040808080818001B
:10580000080808080808080808080808000604042A
:105810000408040404040600022518000000000027
:105820000000000000000000000000000000000078
:105830000000000000000008080808080808000030
:105840001818000000486C2412000000000000003E
:10585000000000000000002424247F1212127F1296
:10586000121200000000081C2A2A0A0C1828282AF4
:105870002A1C080800000022251515152A58545422
:10588000542200000000000C1212120A7625291181
:10589000916E0000000606040300000000000000F6
:1058A0000000000000402010100808080808081038
:1058B00010204000000204080810101010101008FA
:1058C000080402000000000008086B1C1C6B08089C
:1058D0000000000000000000080808087F08080811
:1058E00008000000000000000000000000000000B0
:1058F000060604030000000000000000FE00000097
:105900000000000000000000000000000000000097
:105910000606000000008040402020101008080407
:105920000402020000000018244242424242424265
:1059300024180000000000080E08080808080808DD
:10594000083E00000000003C4242422020100804B3
:10595000427E00000000003C4242201820404042AD
:10596000221C0000000000203028242422227E2057
:10597000207800000000007E0202021A2640404209
:10598000221C0000000000382402021A2642424273
:10599000241800000000007E2222101008080808C9
:1059A000080800000000003C424242241824424201
:1059B000423C00000000001824424242645840402B
:1059C000241C000000000000000018180000000067
:1059D000181800000000000000000008000000008F
:1059E0000008080400000040201008040204081009
:1059F000204000000000000000007F0000007F0049
:105A000000000000000000020408102040201008E0
:105A1000040200000000003C4242464020101000FA
:105A2000181800000000001C225A555555552D42EB
:105A3000221C00000000000808181414243C224214
:105A400042E700000000001F2222221E22424242A2
:105A5000221F00000000007C4242010101010142BE
:105A6000221C00000000001F2242424242424242E9
:105A7000221F00000000003F4212121E12120242BA
:105A8000423F00000000003F4212121E12120202AA
:105A9000020700000000003C2222010101712122C6
:105AA000221C0000000000E7424242427E42424285
:105AB00042E700000000003E08080808080808083F
:105AC000083E00000000007C101010101010101094
:105AD0001010110F0000007722120A0E0A12122273
